{
  "abi": [
    {
      "type": "constructor",
      "inputs": [],
      "stateMutability": "nonpayable"
    },
    {
      "type": "function",
      "name": "allowance",
      "inputs": [
        {
          "name": "owner",
          "type": "address",
          "internalType": "address"
        },
        {
          "name": "spender",
          "type": "address",
          "internalType": "address"
        }
      ],
      "outputs": [
        {
          "name": "",
          "type": "uint256",
          "internalType": "uint256"
        }
      ],
      "stateMutability": "view"
    },
    {
      "type": "function",
      "name": "approve",
      "inputs": [
        {
          "name": "spender",
          "type": "address",
          "internalType": "address"
        },
        {
          "name": "value",
          "type": "uint256",
          "internalType": "uint256"
        }
      ],
      "outputs": [
        {
          "name": "",
          "type": "bool",
          "internalType": "bool"
        }
      ],
      "stateMutability": "nonpayable"
    },
    {
      "type": "function",
      "name": "balanceOf",
      "inputs": [
        {
          "name": "account",
          "type": "address",
          "internalType": "address"
        }
      ],
      "outputs": [
        {
          "name": "",
          "type": "uint256",
          "internalType": "uint256"
        }
      ],
      "stateMutability": "view"
    },
    {
      "type": "function",
      "name": "decimals",
      "inputs": [],
      "outputs": [
        {
          "name": "",
          "type": "uint8",
          "internalType": "uint8"
        }
      ],
      "stateMutability": "view"
    },
    {
      "type": "function",
      "name": "initialize",
      "inputs": [
        {
          "name": "params",
          "type": "tuple",
          "internalType": "struct LaunchboxERC20.InitializeParams",
          "components": [
            {
              "name": "_name",
              "type": "string",
              "internalType": "string"
            },
            {
              "name": "_symbol",
              "type": "string",
              "internalType": "string"
            },
            {
              "name": "_metadataURI",
              "type": "string",
              "internalType": "string"
            },
            {
              "name": "_tradeFee",
              "type": "uint256",
              "internalType": "uint256"
            },
            {
              "name": "_tokenSupplyAfterFee",
              "type": "uint256",
              "internalType": "uint256"
            },
            {
              "name": "_platformFee",
              "type": "uint256",
              "internalType": "uint256"
            },
            {
              "name": "_communitySupply",
              "type": "uint256",
              "internalType": "uint256"
            },
            {
              "name": "_marketCapThreshold",
              "type": "uint256",
              "internalType": "uint256"
            },
            {
              "name": "_launchboxExchangeImplementation",
              "type": "address",
              "internalType": "address"
            },
            {
              "name": "_platformFeeAddress",
              "type": "address",
              "internalType": "address"
            },
            {
              "name": "_router",
              "type": "address",
              "internalType": "address"
            },
            {
              "name": "_communityTreasuryOwner",
              "type": "address",
              "internalType": "address"
            }
          ]
        }
      ],
      "outputs": [
        {
          "name": "",
          "type": "address",
          "internalType": "address"
        }
      ],
      "stateMutability": "payable"
    },
    {
      "type": "function",
      "name": "launchboxExchange",
      "inputs": [],
      "outputs": [
        {
          "name": "",
          "type": "address",
          "internalType": "address payable"
        }
      ],
      "stateMutability": "view"
    },
    {
      "type": "function",
      "name": "metadataURI",
      "inputs": [],
      "outputs": [
        {
          "name": "",
          "type": "string",
          "internalType": "string"
        }
      ],
      "stateMutability": "view"
    },
    {
      "type": "function",
      "name": "name",
      "inputs": [],
      "outputs": [
        {
          "name": "",
          "type": "string",
          "internalType": "string"
        }
      ],
      "stateMutability": "view"
    },
    {
      "type": "function",
      "name": "symbol",
      "inputs": [],
      "outputs": [
        {
          "name": "",
          "type": "string",
          "internalType": "string"
        }
      ],
      "stateMutability": "view"
    },
    {
      "type": "function",
      "name": "totalSupply",
      "inputs": [],
      "outputs": [
        {
          "name": "",
          "type": "uint256",
          "internalType": "uint256"
        }
      ],
      "stateMutability": "view"
    },
    {
      "type": "function",
      "name": "transfer",
      "inputs": [
        {
          "name": "to",
          "type": "address",
          "internalType": "address"
        },
        {
          "name": "value",
          "type": "uint256",
          "internalType": "uint256"
        }
      ],
      "outputs": [
        {
          "name": "",
          "type": "bool",
          "internalType": "bool"
        }
      ],
      "stateMutability": "nonpayable"
    },
    {
      "type": "function",
      "name": "transferFrom",
      "inputs": [
        {
          "name": "from",
          "type": "address",
          "internalType": "address"
        },
        {
          "name": "to",
          "type": "address",
          "internalType": "address"
        },
        {
          "name": "value",
          "type": "uint256",
          "internalType": "uint256"
        }
      ],
      "outputs": [
        {
          "name": "",
          "type": "bool",
          "internalType": "bool"
        }
      ],
      "stateMutability": "nonpayable"
    },
    {
      "type": "event",
      "name": "Approval",
      "inputs": [
        {
          "name": "owner",
          "type": "address",
          "indexed": true,
          "internalType": "address"
        },
        {
          "name": "spender",
          "type": "address",
          "indexed": true,
          "internalType": "address"
        },
        {
          "name": "value",
          "type": "uint256",
          "indexed": false,
          "internalType": "uint256"
        }
      ],
      "anonymous": false
    },
    {
      "type": "event",
      "name": "Initialized",
      "inputs": [
        {
          "name": "version",
          "type": "uint64",
          "indexed": false,
          "internalType": "uint64"
        }
      ],
      "anonymous": false
    },
    {
      "type": "event",
      "name": "TokenInitialized",
      "inputs": [
        {
          "name": "supplyToBeSold",
          "type": "uint256",
          "indexed": false,
          "internalType": "uint256"
        },
        {
          "name": "platformFeeReceiver",
          "type": "address",
          "indexed": false,
          "internalType": "address"
        },
        {
          "name": "platformFee",
          "type": "uint256",
          "indexed": false,
          "internalType": "uint256"
        },
        {
          "name": "communityShareReceiver",
          "type": "address",
          "indexed": false,
          "internalType": "address"
        },
        {
          "name": "communityShare",
          "type": "uint256",
          "indexed": false,
          "internalType": "uint256"
        }
      ],
      "anonymous": false
    },
    {
      "type": "event",
      "name": "Transfer",
      "inputs": [
        {
          "name": "from",
          "type": "address",
          "indexed": true,
          "internalType": "address"
        },
        {
          "name": "to",
          "type": "address",
          "indexed": true,
          "internalType": "address"
        },
        {
          "name": "value",
          "type": "uint256",
          "indexed": false,
          "internalType": "uint256"
        }
      ],
      "anonymous": false
    },
    {
      "type": "error",
      "name": "CannotSellZeroTokens",
      "inputs": []
    },
    {
      "type": "error",
      "name": "ERC1167FailedCreateClone",
      "inputs": []
    },
    {
      "type": "error",
      "name": "ERC20InsufficientAllowance",
      "inputs": [
        {
          "name": "spender",
          "type": "address",
          "internalType": "address"
        },
        {
          "name": "allowance",
          "type": "uint256",
          "internalType": "uint256"
        },
        {
          "name": "needed",
          "type": "uint256",
          "internalType": "uint256"
        }
      ]
    },
    {
      "type": "error",
      "name": "ERC20InsufficientBalance",
      "inputs": [
        {
          "name": "sender",
          "type": "address",
          "internalType": "address"
        },
        {
          "name": "balance",
          "type": "uint256",
          "internalType": "uint256"
        },
        {
          "name": "needed",
          "type": "uint256",
          "internalType": "uint256"
        }
      ]
    },
    {
      "type": "error",
      "name": "ERC20InvalidApprover",
      "inputs": [
        {
          "name": "approver",
          "type": "address",
          "internalType": "address"
        }
      ]
    },
    {
      "type": "error",
      "name": "ERC20InvalidReceiver",
      "inputs": [
        {
          "name": "receiver",
          "type": "address",
          "internalType": "address"
        }
      ]
    },
    {
      "type": "error",
      "name": "ERC20InvalidSender",
      "inputs": [
        {
          "name": "sender",
          "type": "address",
          "internalType": "address"
        }
      ]
    },
    {
      "type": "error",
      "name": "ERC20InvalidSpender",
      "inputs": [
        {
          "name": "spender",
          "type": "address",
          "internalType": "address"
        }
      ]
    },
    {
      "type": "error",
      "name": "InvalidInitialization",
      "inputs": []
    },
    {
      "type": "error",
      "name": "MetadataEmpty",
      "inputs": []
    },
    {
      "type": "error",
      "name": "NotInitializing",
      "inputs": []
    },
    {
      "type": "error",
      "name": "PlatformFeeReceiverEmpty",
      "inputs": []
    }
  ],
  "bytecode": {
    "object": "0x608060405234801561001057600080fd5b5061001961001e565b6100d0565b7ff0c57e16840df040f15088dc2f81fe391c3923bec73e23a9662efc9c229c6a00805468010000000000000000900460ff161561006e5760405163f92ee8a960e01b815260040160405180910390fd5b80546001600160401b03908116146100cd5780546001600160401b0319166001600160401b0390811782556040519081527fc7f505b2f371ae2175ee4913f4499e1f2633a7b5936321eed1cdaeb6115181d29060200160405180910390a15b50565b6115d2806100df6000396000f3fe6080604052600436106100c75760003560e01c80636ca112061161007457806395d89b411161004e57806395d89b411461027d578063a9059cbb14610292578063dd62ed3e146102b257600080fd5b80636ca11206146101b657806370a08231146101ee5780638e14baf01461025057600080fd5b806318160ddd116100a557806318160ddd1461013c57806323b872dd1461017a578063313ce5671461019a57600080fd5b806303ee438c146100cc57806306fdde03146100f7578063095ea7b31461010c575b600080fd5b3480156100d857600080fd5b506100e1610324565b6040516100ee9190611054565b60405180910390f35b34801561010357600080fd5b506100e16103b2565b34801561011857600080fd5b5061012c6101273660046110e4565b610487565b60405190151581526020016100ee565b34801561014857600080fd5b507f52c63247e1f47db19d5ce0460030c497f067ca4cebf71ba98eeadabe20bace02545b6040519081526020016100ee565b34801561018657600080fd5b5061012c61019536600461110e565b6104a1565b3480156101a657600080fd5b50604051601281526020016100ee565b6101c96101c436600461124e565b6104c5565b60405173ffffffffffffffffffffffffffffffffffffffff90911681526020016100ee565b3480156101fa57600080fd5b5061016c610209366004611388565b73ffffffffffffffffffffffffffffffffffffffff1660009081527f52c63247e1f47db19d5ce0460030c497f067ca4cebf71ba98eeadabe20bace00602052604090205490565b34801561025c57600080fd5b506001546101c99073ffffffffffffffffffffffffffffffffffffffff1681565b34801561028957600080fd5b506100e16107db565b34801561029e57600080fd5b5061012c6102ad3660046110e4565b61082c565b3480156102be57600080fd5b5061016c6102cd3660046113aa565b73ffffffffffffffffffffffffffffffffffffffff91821660009081527f52c63247e1f47db19d5ce0460030c497f067ca4cebf71ba98eeadabe20bace016020908152604080832093909416825291909152205490565b60008054610331906113dd565b80601f016020809104026020016040519081016040528092919081815260200182805461035d906113dd565b80156103aa5780601f1061037f576101008083540402835291602001916103aa565b820191906000526020600020905b81548152906001019060200180831161038d57829003601f168201915b505050505081565b7f52c63247e1f47db19d5ce0460030c497f067ca4cebf71ba98eeadabe20bace0380546060917f52c63247e1f47db19d5ce0460030c497f067ca4cebf71ba98eeadabe20bace0091610403906113dd565b80601f016020809104026020016040519081016040528092919081815260200182805461042f906113dd565b801561047c5780601f106104515761010080835404028352916020019161047c565b820191906000526020600020905b81548152906001019060200180831161045f57829003601f168201915b505050505091505090565b60003361049581858561083a565b60019150505b92915050565b6000336104af85828561084c565b6104ba85858561093f565b506001949350505050565b7ff0c57e16840df040f15088dc2f81fe391c3923bec73e23a9662efc9c229c6a0080546000919068010000000000000000810460ff16159067ffffffffffffffff1683811580156105135750825b905060008267ffffffffffffffff1660011480156105305750303b155b90508115801561053e575080155b15610575576040517ff92ee8a900000000000000000000000000000000000000000000000000000000815260040160405180910390fd5b84547fffffffffffffffffffffffffffffffffffffffffffffffff000000000000000016600117855583156105d65784547fffffffffffffffffffffffffffffffffffffffffffffff00ffffffffffffffff16680100000000000000001785555b6105e8876000015188602001516109ea565b866040015151600003610627576040517f35b2646f00000000000000000000000000000000000000000000000000000000815260040160405180910390fd5b8660800151600003610665576040517f2937fa8c00000000000000000000000000000000000000000000000000000000815260040160405180910390fd5b6040870151600090610677908261147e565b5061068b8760a00151886101200151610a00565b61069e8760c00151886101600151610a5d565b6106a787610a6d565b600180547fffffffffffffffffffffffff00000000000000000000000000000000000000001673ffffffffffffffffffffffffffffffffffffffff9283161790556080888101516101208a015160a0808c01516101608d015160c08e0151604080519687529488166020870152938501919091529094166060830152918101919091527f75a084448edf57b1cab5c18c86c37a3d6f253b712579b706db60141c4dcbbc69910160405180910390a160015473ffffffffffffffffffffffffffffffffffffffff16955083156107d15784547fffffffffffffffffffffffffffffffffffffffffffffff00ffffffffffffffff168555604051600181527fc7f505b2f371ae2175ee4913f4499e1f2633a7b5936321eed1cdaeb6115181d29060200160405180910390a15b5050505050919050565b7f52c63247e1f47db19d5ce0460030c497f067ca4cebf71ba98eeadabe20bace0480546060917f52c63247e1f47db19d5ce0460030c497f067ca4cebf71ba98eeadabe20bace0091610403906113dd565b60003361049581858561093f565b6108478383836001610b56565b505050565b73ffffffffffffffffffffffffffffffffffffffff83811660009081527f52c63247e1f47db19d5ce0460030c497f067ca4cebf71ba98eeadabe20bace0160209081526040808320938616835292905220547fffffffffffffffffffffffffffffffffffffffffffffffffffffffffffffffff8114610939578181101561092a576040517ffb8f41b200000000000000000000000000000000000000000000000000000000815273ffffffffffffffffffffffffffffffffffffffff8416600482015260248101829052604481018390526064015b60405180910390fd5b61093984848484036000610b56565b50505050565b73ffffffffffffffffffffffffffffffffffffffff831661098f576040517f96c6fd1e00000000000000000000000000000000000000000000000000000000815260006004820152602401610921565b73ffffffffffffffffffffffffffffffffffffffff82166109df576040517fec442f0500000000000000000000000000000000000000000000000000000000815260006004820152602401610921565b610847838383610cc3565b6109f2610e94565b6109fc8282610efd565b5050565b81156109fc5773ffffffffffffffffffffffffffffffffffffffff8116610a53576040517f37cc102a00000000000000000000000000000000000000000000000000000000815260040160405180910390fd5b6109fc8183610f60565b81156109fc576109fc8183610f60565b600080610a7e836101000151610fbc565b9050610a8e818460800151610f60565b6101208301516060840151608085015160e08601516101408701516040517fb1a5d12d00000000000000000000000000000000000000000000000000000000815230600482015273ffffffffffffffffffffffffffffffffffffffff9586166024820152604481019490945260648401929092526084830152821660a48201529082169063b1a5d12d90349060c4016000604051808303818588803b158015610b3657600080fd5b505af1158015610b4a573d6000803e3d6000fd5b50939695505050505050565b7f52c63247e1f47db19d5ce0460030c497f067ca4cebf71ba98eeadabe20bace0073ffffffffffffffffffffffffffffffffffffffff8516610bc7576040517fe602df0500000000000000000000000000000000000000000000000000000000815260006004820152602401610921565b73ffffffffffffffffffffffffffffffffffffffff8416610c17576040517f94280d6200000000000000000000000000000000000000000000000000000000815260006004820152602401610921565b73ffffffffffffffffffffffffffffffffffffffff808616600090815260018301602090815260408083209388168352929052208390558115610cbc578373ffffffffffffffffffffffffffffffffffffffff168573ffffffffffffffffffffffffffffffffffffffff167f8c5be1e5ebec7d5bd14f71427d1e84f3dd0314c0f7b2291e5b200ac8c7c3b92585604051610cb391815260200190565b60405180910390a35b5050505050565b7f52c63247e1f47db19d5ce0460030c497f067ca4cebf71ba98eeadabe20bace0073ffffffffffffffffffffffffffffffffffffffff8416610d1e5781816002016000828254610d139190611598565b90915550610dd09050565b73ffffffffffffffffffffffffffffffffffffffff841660009081526020829052604090205482811015610da4576040517fe450d38c00000000000000000000000000000000000000000000000000000000815273ffffffffffffffffffffffffffffffffffffffff861660048201526024810182905260448101849052606401610921565b73ffffffffffffffffffffffffffffffffffffffff851660009081526020839052604090209083900390555b73ffffffffffffffffffffffffffffffffffffffff8316610dfb576002810180548390039055610e27565b73ffffffffffffffffffffffffffffffffffffffff831660009081526020829052604090208054830190555b8273ffffffffffffffffffffffffffffffffffffffff168473ffffffffffffffffffffffffffffffffffffffff167fddf252ad1be2c89b69c2b068fc378daa952ba7f163c4a11628f55a4df523b3ef84604051610e8691815260200190565b60405180910390a350505050565b7ff0c57e16840df040f15088dc2f81fe391c3923bec73e23a9662efc9c229c6a005468010000000000000000900460ff16610efb576040517fd7e6bcf800000000000000000000000000000000000000000000000000000000815260040160405180910390fd5b565b610f05610e94565b7f52c63247e1f47db19d5ce0460030c497f067ca4cebf71ba98eeadabe20bace007f52c63247e1f47db19d5ce0460030c497f067ca4cebf71ba98eeadabe20bace03610f51848261147e565b5060048101610939838261147e565b73ffffffffffffffffffffffffffffffffffffffff8216610fb0576040517fec442f0500000000000000000000000000000000000000000000000000000000815260006004820152602401610921565b6109fc60008383610cc3565b6000763d602d80600a3d3981f3363d3d373d3d3d363d730000008260601b60e81c176000526e5af43d82803e903d91602b57fd5bf38260781b17602052603760096000f0905073ffffffffffffffffffffffffffffffffffffffff811661104f576040517fc2f868f400000000000000000000000000000000000000000000000000000000815260040160405180910390fd5b919050565b600060208083528351808285015260005b8181101561108157858101830151858201604001528201611065565b5060006040828601015260407fffffffffffffffffffffffffffffffffffffffffffffffffffffffffffffffe0601f8301168501019250505092915050565b803573ffffffffffffffffffffffffffffffffffffffff8116811461104f57600080fd5b600080604083850312156110f757600080fd5b611100836110c0565b946020939093013593505050565b60008060006060848603121561112357600080fd5b61112c846110c0565b925061113a602085016110c0565b9150604084013590509250925092565b7f4e487b7100000000000000000000000000000000000000000000000000000000600052604160045260246000fd5b604051610180810167ffffffffffffffff8111828210171561119d5761119d61114a565b60405290565b600082601f8301126111b457600080fd5b813567ffffffffffffffff808211156111cf576111cf61114a565b604051601f83017fffffffffffffffffffffffffffffffffffffffffffffffffffffffffffffffe0908116603f011681019082821181831017156112155761121561114a565b8160405283815286602085880101111561122e57600080fd5b836020870160208301376000602085830101528094505050505092915050565b60006020828403121561126057600080fd5b813567ffffffffffffffff8082111561127857600080fd5b90830190610180828603121561128d57600080fd5b611295611179565b8235828111156112a457600080fd5b6112b0878286016111a3565b8252506020830135828111156112c557600080fd5b6112d1878286016111a3565b6020830152506040830135828111156112e957600080fd5b6112f5878286016111a3565b604083015250606083013560608201526080830135608082015260a083013560a082015260c083013560c082015260e083013560e0820152610100915061133d8284016110c0565b8282015261012091506113518284016110c0565b8282015261014091506113658284016110c0565b8282015261016091506113798284016110c0565b91810191909152949350505050565b60006020828403121561139a57600080fd5b6113a3826110c0565b9392505050565b600080604083850312156113bd57600080fd5b6113c6836110c0565b91506113d4602084016110c0565b90509250929050565b600181811c908216806113f157607f821691505b60208210810361142a577f4e487b7100000000000000000000000000000000000000000000000000000000600052602260045260246000fd5b50919050565b601f82111561084757600081815260208120601f850160051c810160208610156114575750805b601f850160051c820191505b8181101561147657828155600101611463565b505050505050565b815167ffffffffffffffff8111156114985761149861114a565b6114ac816114a684546113dd565b84611430565b602080601f8311600181146114ff57600084156114c95750858301515b7fffffffffffffffffffffffffffffffffffffffffffffffffffffffffffffffff600386901b1c1916600185901b178555611476565b6000858152602081207fffffffffffffffffffffffffffffffffffffffffffffffffffffffffffffffe08616915b8281101561154c5788860151825594840194600190910190840161152d565b508582101561158857878501517fffffffffffffffffffffffffffffffffffffffffffffffffffffffffffffffff600388901b60f8161c191681555b5050505050600190811b01905550565b8082018082111561049b577f4e487b7100000000000000000000000000000000000000000000000000000000600052601160045260246000fd",
    "linkReferences": {}
  },
  "methodIdentifiers": {
    "allowance(address,address)": "dd62ed3e",
    "approve(address,uint256)": "095ea7b3",
    "balanceOf(address)": "70a08231",
    "decimals()": "313ce567",
    "initialize((string,string,string,uint256,uint256,uint256,uint256,uint256,address,address,address,address))": "6ca11206",
    "launchboxExchange()": "8e14baf0",
    "metadataURI()": "03ee438c",
    "name()": "06fdde03",
    "symbol()": "95d89b41",
    "totalSupply()": "18160ddd",
    "transfer(address,uint256)": "a9059cbb",
    "transferFrom(address,address,uint256)": "23b872dd"
  },
  "id": 34
}