{
  "abi": [
    {
      "type": "constructor",
      "inputs": [
        {
          "name": "_tokenImplementation",
          "type": "address",
          "internalType": "address"
        },
        {
          "name": "_launchboxExchangeImplementation",
          "type": "address",
          "internalType": "address"
        },
        {
          "name": "_router",
          "type": "address",
          "internalType": "address"
        },
        {
          "name": "_platformFeeReceiver",
          "type": "address",
          "internalType": "address"
        },
        {
          "name": "_marketCapThreshold",
          "type": "uint256",
          "internalType": "uint256"
        },
        {
          "name": "_tradeFee",
          "type": "uint256",
          "internalType": "uint256"
        },
        {
          "name": "_platformFeePercentage",
          "type": "uint256",
          "internalType": "uint256"
        },
        {
          "name": "_communityAllocPercentage",
          "type": "uint256",
          "internalType": "uint256"
        }
      ],
      "stateMutability": "nonpayable"
    },
    {
      "type": "function",
      "name": "communityPercentage",
      "inputs": [],
      "outputs": [
        {
          "name": "",
          "type": "uint256",
          "internalType": "uint256"
        }
      ],
      "stateMutability": "view"
    },
    {
      "type": "function",
      "name": "deployToken",
      "inputs": [
        {
          "name": "name",
          "type": "string",
          "internalType": "string"
        },
        {
          "name": "symbol",
          "type": "string",
          "internalType": "string"
        },
        {
          "name": "metadataURI",
          "type": "string",
          "internalType": "string"
        },
        {
          "name": "maxSupply",
          "type": "uint256",
          "internalType": "uint256"
        }
      ],
      "outputs": [
        {
          "name": "",
          "type": "address",
          "internalType": "address"
        },
        {
          "name": "",
          "type": "address",
          "internalType": "address"
        }
      ],
      "stateMutability": "payable"
    },
    {
      "type": "function",
      "name": "launchboxExchangeImplementation",
      "inputs": [],
      "outputs": [
        {
          "name": "",
          "type": "address",
          "internalType": "address"
        }
      ],
      "stateMutability": "view"
    },
    {
      "type": "function",
      "name": "marketCapThreshold",
      "inputs": [],
      "outputs": [
        {
          "name": "",
          "type": "uint256",
          "internalType": "uint256"
        }
      ],
      "stateMutability": "view"
    },
    {
      "type": "function",
      "name": "owner",
      "inputs": [],
      "outputs": [
        {
          "name": "",
          "type": "address",
          "internalType": "address"
        }
      ],
      "stateMutability": "view"
    },
    {
      "type": "function",
      "name": "platformFeeAddress",
      "inputs": [],
      "outputs": [
        {
          "name": "",
          "type": "address",
          "internalType": "address payable"
        }
      ],
      "stateMutability": "view"
    },
    {
      "type": "function",
      "name": "platformFeePercentage",
      "inputs": [],
      "outputs": [
        {
          "name": "",
          "type": "uint256",
          "internalType": "uint256"
        }
      ],
      "stateMutability": "view"
    },
    {
      "type": "function",
      "name": "renounceOwnership",
      "inputs": [],
      "outputs": [],
      "stateMutability": "nonpayable"
    },
    {
      "type": "function",
      "name": "router",
      "inputs": [],
      "outputs": [
        {
          "name": "",
          "type": "address",
          "internalType": "address"
        }
      ],
      "stateMutability": "view"
    },
    {
      "type": "function",
      "name": "setCommunityPerecentage",
      "inputs": [
        {
          "name": "_communityPercentage",
          "type": "uint256",
          "internalType": "uint256"
        }
      ],
      "outputs": [],
      "stateMutability": "nonpayable"
    },
    {
      "type": "function",
      "name": "setMarketCapThreshold",
      "inputs": [
        {
          "name": "_newMarketCapThreshold",
          "type": "uint256",
          "internalType": "uint256"
        }
      ],
      "outputs": [],
      "stateMutability": "nonpayable"
    },
    {
      "type": "function",
      "name": "setPlatformFeeAddress",
      "inputs": [
        {
          "name": "_platformFeeAddress",
          "type": "address",
          "internalType": "address payable"
        }
      ],
      "outputs": [],
      "stateMutability": "nonpayable"
    },
    {
      "type": "function",
      "name": "setPlatformFeePercentage",
      "inputs": [
        {
          "name": "_platformFeePercentage",
          "type": "uint256",
          "internalType": "uint256"
        }
      ],
      "outputs": [],
      "stateMutability": "nonpayable"
    },
    {
      "type": "function",
      "name": "setTradeFee",
      "inputs": [
        {
          "name": "_tradeFee",
          "type": "uint256",
          "internalType": "uint256"
        }
      ],
      "outputs": [],
      "stateMutability": "nonpayable"
    },
    {
      "type": "function",
      "name": "tokenImplementation",
      "inputs": [],
      "outputs": [
        {
          "name": "",
          "type": "address",
          "internalType": "address"
        }
      ],
      "stateMutability": "view"
    },
    {
      "type": "function",
      "name": "tradeFee",
      "inputs": [],
      "outputs": [
        {
          "name": "",
          "type": "uint256",
          "internalType": "uint256"
        }
      ],
      "stateMutability": "view"
    },
    {
      "type": "function",
      "name": "transferOwnership",
      "inputs": [
        {
          "name": "newOwner",
          "type": "address",
          "internalType": "address"
        }
      ],
      "outputs": [],
      "stateMutability": "nonpayable"
    },
    {
      "type": "event",
      "name": "CommunityPerecentageUpdated",
      "inputs": [
        {
          "name": "newCommunityShare",
          "type": "uint256",
          "indexed": false,
          "internalType": "uint256"
        }
      ],
      "anonymous": false
    },
    {
      "type": "event",
      "name": "MarketCapThresholdUpdated",
      "inputs": [
        {
          "name": "newMarketCapThreshold",
          "type": "uint256",
          "indexed": false,
          "internalType": "uint256"
        }
      ],
      "anonymous": false
    },
    {
      "type": "event",
      "name": "OwnershipTransferred",
      "inputs": [
        {
          "name": "previousOwner",
          "type": "address",
          "indexed": true,
          "internalType": "address"
        },
        {
          "name": "newOwner",
          "type": "address",
          "indexed": true,
          "internalType": "address"
        }
      ],
      "anonymous": false
    },
    {
      "type": "event",
      "name": "PlatformFeeAddressUpdated",
      "inputs": [
        {
          "name": "newPlatformFeeReceiver",
          "type": "address",
          "indexed": false,
          "internalType": "address"
        }
      ],
      "anonymous": false
    },
    {
      "type": "event",
      "name": "PlatformFeePercentageUpdated",
      "inputs": [
        {
          "name": "newPlatformFee",
          "type": "uint256",
          "indexed": false,
          "internalType": "uint256"
        }
      ],
      "anonymous": false
    },
    {
      "type": "event",
      "name": "TokenDeployed",
      "inputs": [
        {
          "name": "tokenAddress",
          "type": "address",
          "indexed": false,
          "internalType": "address"
        },
        {
          "name": "launchboxExchangeAddress",
          "type": "address",
          "indexed": false,
          "internalType": "address"
        },
        {
          "name": "creator",
          "type": "address",
          "indexed": false,
          "internalType": "address"
        }
      ],
      "anonymous": false
    },
    {
      "type": "event",
      "name": "TradeFeeUpdated",
      "inputs": [
        {
          "name": "newTradeFee",
          "type": "uint256",
          "indexed": false,
          "internalType": "uint256"
        }
      ],
      "anonymous": false
    },
    {
      "type": "error",
      "name": "ERC1167FailedCreateClone",
      "inputs": []
    },
    {
      "type": "error",
      "name": "EmptyAerodromeRouter",
      "inputs": []
    },
    {
      "type": "error",
      "name": "EmptyLaunchboxExchangeImplementation",
      "inputs": []
    },
    {
      "type": "error",
      "name": "EmptyPlatformFeeReceiver",
      "inputs": []
    },
    {
      "type": "error",
      "name": "EmptyTokenImplementation",
      "inputs": []
    },
    {
      "type": "error",
      "name": "FeeGreaterThanHundred",
      "inputs": []
    },
    {
      "type": "error",
      "name": "OwnableInvalidOwner",
      "inputs": [
        {
          "name": "owner",
          "type": "address",
          "internalType": "address"
        }
      ]
    },
    {
      "type": "error",
      "name": "OwnableUnauthorizedAccount",
      "inputs": [
        {
          "name": "account",
          "type": "address",
          "internalType": "address"
        }
      ]
    }
  ],
  "bytecode": {
    "object": "0x60e06040523480156200001157600080fd5b50604051620010a3380380620010a38339810160408190526200003491620001ee565b33806200005b57604051631e4fbdf760e01b81526000600482015260240160405180910390fd5b620000668162000181565b506001600160a01b0388166200008f57604051635a6517ff60e01b815260040160405180910390fd5b6001600160a01b038716620000b75760405163e98232c560e01b815260040160405180910390fd5b6001600160a01b038616620000df57604051633df8233360e01b815260040160405180910390fd5b68056bc75e2d63100000620000f5828462000272565b11156200011557604051637685d5e960e01b815260040160405180910390fd5b6001600160a01b0385166200013d576040516370d956e560e11b815260040160405180910390fd5b600480546001600160a01b0319166001600160a01b0396871617905560029290925560015560035593811660805291821660a0526005929092551660c0526200029a565b600080546001600160a01b038381166001600160a01b0319831681178455604051919092169283917f8be0079c531659141344cd1fd0a4f28419497f9722a3daafe3b4186f6b6457e09190a35050565b80516001600160a01b0381168114620001e957600080fd5b919050565b600080600080600080600080610100898b0312156200020c57600080fd5b6200021789620001d1565b97506200022760208a01620001d1565b96506200023760408a01620001d1565b95506200024760608a01620001d1565b94506080890151935060a0890151925060c0890151915060e089015190509295985092959890939650565b808201808211156200029457634e487b7160e01b600052601160045260246000fd5b92915050565b60805160a05160c051610dc4620002df60003960008181610358015261062d01526000818161038c01526105fa01526000818161019001526105660152610dc46000f3fe60806040526004361061010e5760003560e01c80639375da5a116100a5578063cdd78cfc11610074578063f2fde38b11610059578063f2fde38b14610326578063f887ea4014610346578063f8a208c11461037a57600080fd5b8063cdd78cfc146102e3578063ed14834f146102f957600080fd5b80639375da5a1461024d578063a1c9973a1461026d578063c82403d6146102ad578063c9be579b146102c357600080fd5b806370b0aec5116100e157806370b0aec5146101d7578063715018a6146101ed5780638333903e146102025780638da5cb5b1461022257600080fd5b8063106030231461011357806324bcdfbd14610135578063272675b01461015e5780632f3a3d5d1461017e575b600080fd5b34801561011f57600080fd5b5061013361012e36600461097f565b6103ae565b005b34801561014157600080fd5b5061014b60025481565b6040519081526020015b60405180910390f35b34801561016a57600080fd5b5061013361017936600461097f565b6103f2565b34801561018a57600080fd5b506101b27f000000000000000000000000000000000000000000000000000000000000000081565b60405173ffffffffffffffffffffffffffffffffffffffff9091168152602001610155565b3480156101e357600080fd5b5061014b60055481565b3480156101f957600080fd5b5061013361042f565b34801561020e57600080fd5b5061013361021d36600461097f565b610437565b34801561022e57600080fd5b5060005473ffffffffffffffffffffffffffffffffffffffff166101b2565b34801561025957600080fd5b506101336102683660046109ba565b610474565b61028061027b366004610ab8565b61053c565b6040805173ffffffffffffffffffffffffffffffffffffffff938416815292909116602083015201610155565b3480156102b957600080fd5b5061014b60035481565b3480156102cf57600080fd5b506101336102de36600461097f565b61074e565b3480156102ef57600080fd5b5061014b60015481565b34801561030557600080fd5b506004546101b29073ffffffffffffffffffffffffffffffffffffffff1681565b34801561033257600080fd5b506101336103413660046109ba565b61078b565b34801561035257600080fd5b506101b27f000000000000000000000000000000000000000000000000000000000000000081565b34801561038657600080fd5b506101b27f000000000000000000000000000000000000000000000000000000000000000081565b6103b66107f4565b60028190556040518181527ff4e31203dbe8c5d77888fca62598b5e81d4649a7067af2fa1d7606ff3351626d906020015b60405180910390a150565b6103fa6107f4565b60038190556040518181527fbf82d8a345b91fbeda019f49ceefbd1c878f31d9fc03d876a07b6088171d00c4906020016103e7565b61010e6107f4565b61043f6107f4565b60018190556040518181527fd0a5ddfa06600c6481dcd2923a572827c06e53859f23f7ddab41ff3144ee8687906020016103e7565b61047c6107f4565b73ffffffffffffffffffffffffffffffffffffffff81166104c9576040517fe1b2adca00000000000000000000000000000000000000000000000000000000815260040160405180910390fd5b600480547fffffffffffffffffffffffff00000000000000000000000000000000000000001673ffffffffffffffffffffffffffffffffffffffff83169081179091556040519081527fd71a785e6a17cb0adfab30204e78a85411c5ef1c18714f35966f1664f8904081906020016103e7565b600080600061054d84600154610849565b9050600061055d85600354610849565b9050600061058a7f0000000000000000000000000000000000000000000000000000000000000000610872565b905060006040518061018001604052808b81526020018a8152602001898152602001600254815260200184866105c09190610b77565b6105ca908a610b8a565b8152602081018690526040808201869052600554606083015273ffffffffffffffffffffffffffffffffffffffff7f00000000000000000000000000000000000000000000000000000000000000008116608084015260048054821660a08501527f0000000000000000000000000000000000000000000000000000000000000000821660c08501523360e09094019390935290517f6ca1120600000000000000000000000000000000000000000000000000000000815292935060009290851691636ca112069134916106a091879101610c01565b60206040518083038185885af11580156106be573d6000803e3d6000fd5b50505050506040513d601f19601f820116820180604052508101906106e39190610d55565b6040805173ffffffffffffffffffffffffffffffffffffffff868116825283166020820152338183015290519192507fd7b4770d872cf541c7302a5671e3ceb80df26b15aacab2ba0f395c3056b9ad5f919081900360600190a1919a91995090975050505050505050565b6107566107f4565b60058190556040518181527fa43c485fc60859b2bfd668eb9210956d4a72d5344d21a0985deb8846ceea1729906020016103e7565b6107936107f4565b73ffffffffffffffffffffffffffffffffffffffff81166107e8576040517f1e4fbdf7000000000000000000000000000000000000000000000000000000008152600060048201526024015b60405180910390fd5b6107f18161090a565b50565b60005473ffffffffffffffffffffffffffffffffffffffff163314610847576040517f118cdaa70000000000000000000000000000000000000000000000000000000081523360048201526024016107df565b565b600068056bc75e2d6310000061085f8385610d72565b6108699190610d89565b90505b92915050565b6000763d602d80600a3d3981f3363d3d373d3d3d363d730000008260601b60e81c176000526e5af43d82803e903d91602b57fd5bf38260781b17602052603760096000f0905073ffffffffffffffffffffffffffffffffffffffff8116610905576040517fc2f868f400000000000000000000000000000000000000000000000000000000815260040160405180910390fd5b919050565b6000805473ffffffffffffffffffffffffffffffffffffffff8381167fffffffffffffffffffffffff0000000000000000000000000000000000000000831681178455604051919092169283917f8be0079c531659141344cd1fd0a4f28419497f9722a3daafe3b4186f6b6457e09190a35050565b60006020828403121561099157600080fd5b5035919050565b73ffffffffffffffffffffffffffffffffffffffff811681146107f157600080fd5b6000602082840312156109cc57600080fd5b81356109d781610998565b9392505050565b7f4e487b7100000000000000000000000000000000000000000000000000000000600052604160045260246000fd5b600082601f830112610a1e57600080fd5b813567ffffffffffffffff80821115610a3957610a396109de565b604051601f83017fffffffffffffffffffffffffffffffffffffffffffffffffffffffffffffffe0908116603f01168101908282118183101715610a7f57610a7f6109de565b81604052838152866020858801011115610a9857600080fd5b836020870160208301376000602085830101528094505050505092915050565b60008060008060808587031215610ace57600080fd5b843567ffffffffffffffff80821115610ae657600080fd5b610af288838901610a0d565b95506020870135915080821115610b0857600080fd5b610b1488838901610a0d565b94506040870135915080821115610b2a57600080fd5b50610b3787828801610a0d565b949793965093946060013593505050565b7f4e487b7100000000000000000000000000000000000000000000000000000000600052601160045260246000fd5b8082018082111561086c5761086c610b48565b8181038181111561086c5761086c610b48565b6000815180845260005b81811015610bc357602081850181015186830182015201610ba7565b5060006020828601015260207fffffffffffffffffffffffffffffffffffffffffffffffffffffffffffffffe0601f83011685010191505092915050565b6020815260008251610180806020850152610c206101a0850183610b9d565b915060208501517fffffffffffffffffffffffffffffffffffffffffffffffffffffffffffffffe080868503016040870152610c5c8483610b9d565b9350604087015191508086850301606087015250610c7a8382610b9d565b92505060608501516080850152608085015160a085015260a085015160c085015260c085015160e085015260e0850151610100818187015280870151915050610120610cdd8187018373ffffffffffffffffffffffffffffffffffffffff169052565b8601519050610140610d068682018373ffffffffffffffffffffffffffffffffffffffff169052565b8601519050610160610d2f8682018373ffffffffffffffffffffffffffffffffffffffff169052565b9095015173ffffffffffffffffffffffffffffffffffffffff1693019290925250919050565b600060208284031215610d6757600080fd5b81516109d781610998565b808202811582820484141761086c5761086c610b48565b600082610dbf577f4e487b7100000000000000000000000000000000000000000000000000000000600052601260045260246000fd5b50049056",
    "linkReferences": {}
  },
  "methodIdentifiers": {
    "communityPercentage()": "c82403d6",
    "deployToken(string,string,string,uint256)": "a1c9973a",
    "launchboxExchangeImplementation()": "f8a208c1",
    "marketCapThreshold()": "70b0aec5",
    "owner()": "8da5cb5b",
    "platformFeeAddress()": "ed14834f",
    "platformFeePercentage()": "cdd78cfc",
    "renounceOwnership()": "715018a6",
    "router()": "f887ea40",
    "setCommunityPerecentage(uint256)": "272675b0",
    "setMarketCapThreshold(uint256)": "c9be579b",
    "setPlatformFeeAddress(address)": "9375da5a",
    "setPlatformFeePercentage(uint256)": "8333903e",
    "setTradeFee(uint256)": "10603023",
    "tokenImplementation()": "2f3a3d5d",
    "tradeFee()": "24bcdfbd",
    "transferOwnership(address)": "f2fde38b"
  },
  "id": 38
}