{
  "abi": [
    {
      "inputs": [],
      "name": "ExchangeInactive",
      "type": "error"
    },
    {
      "inputs": [],
      "name": "NotEnoughETH",
      "type": "error"
    },
    {
      "inputs": [],
      "name": "PurchaseExceedsSupply",
      "type": "error"
    },
    {
      "anonymous": false,
      "inputs": [
        {
          "indexed": false,
          "internalType": "uint256",
          "name": "totalEth",
          "type": "uint256"
        },
        {
          "indexed": false,
          "internalType": "uint256",
          "name": "totalTokens",
          "type": "uint256"
        }
      ],
      "name": "BondingEnded",
      "type": "event"
    },
    {
      "inputs": [],
      "name": "aerodromeRouter",
      "outputs": [
        {
          "internalType": "contract IRouter",
          "name": "",
          "type": "address"
        }
      ],
      "stateMutability": "view",
      "type": "function"
    },
    {
      "inputs": [],
      "name": "buyTokens",
      "outputs": [],
      "stateMutability": "payable",
      "type": "function"
    },
    {
      "inputs": [],
      "name": "calculateMarketCap",
      "outputs": [
        {
          "internalType": "uint256",
          "name": "",
          "type": "uint256"
        }
      ],
      "stateMutability": "view",
      "type": "function"
    },
    {
      "inputs": [
        {
          "internalType": "uint256",
          "name": "_supply",
          "type": "uint256"
        },
        {
          "internalType": "uint256",
          "name": "_reserveBalance",
          "type": "uint256"
        },
        {
          "internalType": "uint32",
          "name": "_reserveRatio",
          "type": "uint32"
        },
        {
          "internalType": "uint256",
          "name": "_depositAmount",
          "type": "uint256"
        }
      ],
      "name": "calculatePurchaseReturn",
      "outputs": [
        {
          "internalType": "uint256",
          "name": "",
          "type": "uint256"
        }
      ],
      "stateMutability": "view",
      "type": "function"
    },
    {
      "inputs": [
        {
          "internalType": "uint256",
          "name": "_supply",
          "type": "uint256"
        },
        {
          "internalType": "uint256",
          "name": "_reserveBalance",
          "type": "uint256"
        },
        {
          "internalType": "uint32",
          "name": "_reserveRatio",
          "type": "uint32"
        },
        {
          "internalType": "uint256",
          "name": "_sellAmount",
          "type": "uint256"
        }
      ],
      "name": "calculateSaleReturn",
      "outputs": [
        {
          "internalType": "uint256",
          "name": "",
          "type": "uint256"
        }
      ],
      "stateMutability": "view",
      "type": "function"
    },
    {
      "inputs": [],
      "name": "ethBalance",
      "outputs": [
        {
          "internalType": "uint256",
          "name": "",
          "type": "uint256"
        }
      ],
      "stateMutability": "view",
      "type": "function"
    },
    {
      "inputs": [],
      "name": "getTokenPriceinETH",
      "outputs": [
        {
          "internalType": "uint256",
          "name": "ethAmount",
          "type": "uint256"
        }
      ],
      "stateMutability": "view",
      "type": "function"
    },
    {
      "inputs": [
        {
          "internalType": "address",
          "name": "_tokenAddress",
          "type": "address"
        },
        {
          "internalType": "uint256",
          "name": "_maxSupply",
          "type": "uint256"
        },
        {
          "internalType": "uint256",
          "name": "_marketCapThreshold",
          "type": "uint256"
        },
        {
          "internalType": "address",
          "name": "_aerodromeRouter",
          "type": "address"
        }
      ],
      "name": "initialize",
      "outputs": [],
      "stateMutability": "payable",
      "type": "function"
    },
    {
      "inputs": [],
      "name": "launchboxErc20Balance",
      "outputs": [
        {
          "internalType": "uint256",
          "name": "",
          "type": "uint256"
        }
      ],
      "stateMutability": "view",
      "type": "function"
    },
    {
      "inputs": [],
      "name": "launchboxErc20BalanceReceived",
      "outputs": [
        {
          "internalType": "uint256",
          "name": "",
          "type": "uint256"
        }
      ],
      "stateMutability": "view",
      "type": "function"
    },
    {
      "inputs": [],
      "name": "marketCapThreshold",
      "outputs": [
        {
          "internalType": "uint256",
          "name": "",
          "type": "uint256"
        }
      ],
      "stateMutability": "view",
      "type": "function"
    },
    {
      "inputs": [],
      "name": "maxSupply",
      "outputs": [
        {
          "internalType": "uint256",
          "name": "",
          "type": "uint256"
        }
      ],
      "stateMutability": "view",
      "type": "function"
    },
    {
      "inputs": [],
      "name": "reserveRatio",
      "outputs": [
        {
          "internalType": "uint32",
          "name": "",
          "type": "uint32"
        }
      ],
      "stateMutability": "view",
      "type": "function"
    },
    {
      "inputs": [],
      "name": "saleActive",
      "outputs": [
        {
          "internalType": "bool",
          "name": "",
          "type": "bool"
        }
      ],
      "stateMutability": "view",
      "type": "function"
    },
    {
      "inputs": [
        {
          "internalType": "uint256",
          "name": "tokenAmount",
          "type": "uint256"
        }
      ],
      "name": "sellTokens",
      "outputs": [],
      "stateMutability": "nonpayable",
      "type": "function"
    },
    {
      "inputs": [],
      "name": "token",
      "outputs": [
        {
          "internalType": "contract IERC20",
          "name": "",
          "type": "address"
        }
      ],
      "stateMutability": "view",
      "type": "function"
    },
    {
      "inputs": [],
      "name": "version",
      "outputs": [
        {
          "internalType": "string",
          "name": "",
          "type": "string"
        }
      ],
      "stateMutability": "view",
      "type": "function"
    },
    {
      "stateMutability": "payable",
      "type": "receive"
    }
  ],
  "bytecode": {
    "object": "0x60806040526086805460ff60201b1916905534801561001d57600080fd5b506001641c35fedd1560601b036020556001646c3390ecc9605e1b036021556001640cf801476160611b0360225560016431bdb23e1d605f1b0360235560016502fb1d8fe083605b1b0360245560016505b771955b37605a1b036025556001650af67a93bb5160591b0360265560016515060c256cb360581b036027556001651428a2f98d7360581b036028556001654d515663970960561b03602955600165944620b0e70f60551b03602a55600166011c592761c66760541b03602b5560016602214d10d014eb60531b03602c55600166020ade36b7dbef60531b03602d5560016603eab73b3bbfe360521b03602e556001660782ee3593f6d760511b03602f556001661ccf4b44bb4821604f1b0360305560016606e7f88ad8a77760511b0360315560016669f3d1c921891d604d1b03603255600166cb2ff529eb71e5604c1b03603355600166c2d415c3db974b604c1b0360345560016702eb40f9f620fda7604a1b0360355560016705990681d961a1eb60491b03603655600167055e12902701414760491b0360375560016714962dee9dc9764160471b0360385560016704ef57b9b560fab560491b0360395560016712ed7b32a58f552b60471b03603a556001679131271922eaa60760441b03603b556001678b380f3558668c4760441b03603c556001680215f77c045fbe885760421b03603d556001600160831b03603e556001670f577eded5773a1160471b03603f556001680eb5ec597592befbf5603f1b036040556001681c35fedd14b861eb05603e1b036041556001683619c87664579bc94b603d1b0360425560016867c00a3b07ffc01fd7603c1b03604355600168c6f6c8f8739773a7a5603b1b03604455600168bec763f8209b7a72b1603b1b0360455560016902dbb8caad9b7097b91b60391b03604655600169057b3d49dda84556d6f760381b03604755600169054183095b2c8ececf3160381b036048556001690a14517cc6b9457111ef60371b0360495560016913545598e5c23276ccf160361b03604a556001692511882c39c3adea96ff60351b03604b55600169471649d87199aa99075760341b03604c557004429a21a029d4c1457cfbffffffffffff604d55700415bc6d6fb7dd71af2cb3ffffffffffff604e557003eab73b3bbfe282243ce1ffffffffffff604f557003c1771ac9fb6b4c18e229ffffffffffff605055700399e96897690418f785257fffffffffff605155700373fc456c53bb779bf0ea9fffffffffff60525570034f9e8e490c48e67e6ab8bfffffffffff60535570032cbfd4a7adc790560b3337ffffffffff60545570030b50570f6e5d2acca94613ffffffffff6055557002eb40f9f620fda6b56c2861ffffffffff6056557002cc8340ecb0d0f520a6af58ffffffffff6057557002af09481380a0a35cf1ba02ffffffffff605855700292c5bdd3b92ec810287b1b3fffffffff605955700277abdcdab07d5a77ac6d6b9fffffffff605a5570025daf6654b1eaa55fd64df5efffffffff605b55700244c49c648baa98192dce88b7ffffffff605c5570022ce03cd5619a311b2471268bffffffff605d55700215f77c045fbe885654a44a0fffffffff605e556001600160811b03605f557001eaefdbdaaee7421fc4d3ede5ffffffff6060557001d6bd8b2eb257df7e8ca57b09bfffffff6061557001c35fedd14b861eb0443f7f133fffffff6062557001b0ce43b322bcde4a56e8ada5afffffff60635570019f0028ec1fff007f5a195a39dfffffff60645570018ded91f0e72ee74f49b15ba527ffffff60655570017d8ec7f04136f4e5615fd41a63ffffff60665570016ddc6556cdb84bdc8d12d22e6fffffff60675570015ecf52776a1155b5bd8395814f7fffff60685570015060c256cb23b3b3cc3754cf40ffffff6069557001428a2f98d728ae223ddab715be3fffff606a5570013545598e5c23276ccf0ede68034fffff606b557001288c4161ce1d6f54b7f61081194fffff606c5570011c592761c666aa641d5a01a40f17ffff606d55700110a688680a7530515f3e6e6cfdcdffff606e557001056f1b5bedf75c6bcb2ce8aed428ffff606f556ffaadceceeff8a0890f3875f008277fff6070556ff05dc6b27edad306388a600f6ba0bfff6071556fe67a5a25da41063de1495d5b18cdbfff6072556fdcff115b14eedde6fc3aa5353f2e4fff6073556fd3e7a3924312399f9aae2e0f868f8fff6074556fcb2ff529eb71e41582cccd5a1ee26fff6075556fc2d415c3db974ab32a51840c0b67edff6076556fbad03e7d883f69ad5b0a186184e06bff6077556fb320d03b2c343d4829abd6075f0cc5ff6078556fabc25204e02828d73c6e80bcdb1a95bf6079556fa4b16f74ee4bb2040a1ec6c15fbbf2df607a556f9deaf736ac1f569deb1b5ae3f36c130f607b556f976bd9952c7aa957f5937d790ef65037607c556f9131271922eaa6064b73a22d0bd4f2bf607d556f8b380f3558668c46c91c49a2f8e967b9607e556f857ddf0117efa215952912839f6473e6607f556129ac806107566000396000f3fe6080604052600436106101125760003560e01c806370b0aec5116100a5578063d5abeb0111610074578063f0d30bd911610059578063f0d30bd914610335578063f96a80e81461034b578063fc0c546a1461036157600080fd5b8063d5abeb01146102c4578063e18e3a68146102da57600080fd5b806370b0aec51461027e5780639e3d87cd14610294578063b6da859b146102a7578063d0febe4c146102bc57600080fd5b80634e6630b0116100e15780634e6630b0146101c057806354fd4d50146101d657806368428a1b1461022c5780636c11bcd31461025e57600080fd5b80630c7d5cd81461012657806327c13f861461015d57806329a00e7c1461018057806349f9b0f7146101a057600080fd5b366101215761011f61038e565b005b600080fd5b34801561013257600080fd5b506086546101439063ffffffff1681565b60405163ffffffff90911681526020015b60405180910390f35b34801561016957600080fd5b506101726104fd565b604051908152602001610154565b34801561018c57600080fd5b5061017261019b366004612657565b61050d565b3480156101ac57600080fd5b506101726101bb366004612657565b6105f8565b3480156101cc57600080fd5b5061017260855481565b3480156101e257600080fd5b5061021f6040518060400160405280600381526020017f302e33000000000000000000000000000000000000000000000000000000000081525081565b604051610154919061269f565b34801561023857600080fd5b5060865461024e90640100000000900460ff1681565b6040519015158152602001610154565b34801561026a57600080fd5b5061011f61027936600461270b565b6106f7565b34801561028a57600080fd5b5061017260825481565b61011f6102a236600461274d565b6108f0565b3480156102b357600080fd5b50610172610a2f565b61011f61038e565b3480156102d057600080fd5b5061017260815481565b3480156102e657600080fd5b506086546103109065010000000000900473ffffffffffffffffffffffffffffffffffffffff1681565b60405173ffffffffffffffffffffffffffffffffffffffff9091168152602001610154565b34801561034157600080fd5b5061017260835481565b34801561035757600080fd5b5061017260845481565b34801561036d57600080fd5b506080546103109073ffffffffffffffffffffffffffffffffffffffff1681565b608654640100000000900460ff166103d2576040517f6fa0109000000000000000000000000000000000000000000000000000000000815260040160405180910390fd5b60006103dd34610a42565b905060845481111561041b576040517f66f7823b00000000000000000000000000000000000000000000000000000000815260040160405180910390fd5b806084600082825461042d91906127c2565b92505081905550346085600082825461044691906127d5565b90915550506080546040517fa9059cbb0000000000000000000000000000000000000000000000000000000081523360048201526024810183905273ffffffffffffffffffffffffffffffffffffffff9091169063a9059cbb906044016020604051808303816000875af11580156104c2573d6000803e3d6000fd5b505050506040513d601f19601f820116820180604052508101906104e691906127e8565b50608254608554106104fa576104fa610a78565b50565b600061050860855490565b905090565b6000808511801561051e5750600084115b8015610530575060008363ffffffff16115b80156105455750620f424063ffffffff841611155b61054e57600080fd5b8160000361055e575060006105f0565b7ffffffffffffffffffffffffffffffffffffffffffffffffffffffffffff0bdc063ffffffff8416016105a75783610596838761280a565b6105a09190612850565b90506105f0565b600080806105b587866127d5565b90506105c6818888620f4240610cee565b9093509150600060ff83166105db858b61280a565b901c90506105e989826127c2565b9450505050505b949350505050565b600080851180156106095750600084115b801561061b575060008363ffffffff16115b80156106305750620f424063ffffffff841611155b801561063c5750848211155b61064557600080fd5b81600003610655575060006105f0565b8482036106635750826105f0565b7ffffffffffffffffffffffffffffffffffffffffffffffffffffffffffff0bdc063ffffffff84160161069b5784610596838661280a565b600080806106a985896127c2565b90506106ba8882620f424089610cee565b909350915060006106cb848961280a565b905060ff831688901b846106df82846127c2565b6106e99190612850565b9a9950505050505050505050565b608654640100000000900460ff1661073b576040517f6fa0109000000000000000000000000000000000000000000000000000000000815260040160405180910390fd5b600061074682610ec8565b9050806085600082825461075a91906127c2565b92505081905550816084600082825461077391906127d5565b90915550506080546040517f23b872dd0000000000000000000000000000000000000000000000000000000081523360048201523060248201526044810184905273ffffffffffffffffffffffffffffffffffffffff909116906323b872dd906064016020604051808303816000875af11580156107f5573d6000803e3d6000fd5b505050506040513d601f19601f8201168201806040525081019061081991906127e8565b610884576040517f08c379a000000000000000000000000000000000000000000000000000000000815260206004820152600f60248201527f5472616e73666572206661696c6564000000000000000000000000000000000060448201526064015b60405180910390fd5b804710156108be576040517f583aa02600000000000000000000000000000000000000000000000000000000815260040160405180910390fd5b604051339082156108fc029083906000818181858888f193505050501580156108eb573d6000803e3d6000fd5b505050565b608680547fffffffffffffff0000000000000000000000000000000000000000ffffffffff166501000000000073ffffffffffffffffffffffffffffffffffffffff8481169190910291909117909155608080547fffffffffffffffffffffffff0000000000000000000000000000000000000000169186169182179055608184905560828390556040517f70a082310000000000000000000000000000000000000000000000000000000081523060048201526370a0823190602401602060405180830381865afa1580156109ca573d6000803e3d6000fd5b505050506040513d601f19601f820116820180604052508101906109ee9190612864565b6084819055608355505060868054476085557fffffffffffffffffffffffffffffffffffffffffffffffffffffff0000000000166401000186a01790555050565b6000610508670de0b6b3a7640000610ec8565b600080608454608354610a5591906127c2565b608554608654919250610a719183919063ffffffff168661050d565b9392505050565b608680547fffffffffffffffffffffffffffffffffffffffffffffffffffffff00ffffffff1690556080546040517f70a0823100000000000000000000000000000000000000000000000000000000815230600482015260009173ffffffffffffffffffffffffffffffffffffffff16906370a0823190602401602060405180830381865afa158015610b0f573d6000803e3d6000fd5b505050506040513d601f19601f82011682018060405250810190610b339190612864565b6080546086546040517f095ea7b300000000000000000000000000000000000000000000000000000000815273ffffffffffffffffffffffffffffffffffffffff650100000000009092048216600482015260248101849052929350479291169063095ea7b3906044016020604051808303816000875af1158015610bbc573d6000803e3d6000fd5b505050506040513d601f19601f82011682018060405250810190610be091906127e8565b506086546080546040517fb7e0d4c000000000000000000000000000000000000000000000000000000000815273ffffffffffffffffffffffffffffffffffffffff91821660048201526000602482018190526044820186905260648201819052608482015261dead60a48201524260c482015265010000000000909204169063b7e0d4c090839060e40160606040518083038185885af1158015610c89573d6000803e3d6000fd5b50505050506040513d601f19601f82011682018060405250810190610cae919061287d565b505060408051838152602081018590527f0fb5fe849b3f01f99b1c15ca5536d36fe2ca08bd7c0cfe4e6ad183586139029192500160405180910390a15050565b6000807002000000000000000000000000000000008610610d6b576040517f08c379a000000000000000000000000000000000000000000000000000000000815260206004820152601860248201527f626173654e2065786365656473206d61782076616c75652e0000000000000000604482015260640161087b565b84861015610dd5576040517f08c379a000000000000000000000000000000000000000000000000000000000815260206004820152601c60248201527f4261736573203c203120617265206e6f7420737570706f727465642e00000000604482015260640161087b565b60008086610df36f800000000000000000000000000000008a61280a565b610dfd9190612850565b905070015bf0a8b1457695355fb8ac404e7a79e3811015610e2857610e2181610ef7565b9150610e34565b610e3181611603565b91505b60008563ffffffff168763ffffffff1684610e4f919061280a565b610e599190612850565b9050700800000000000000000000000000000000811015610e8b57610e7d8161173c565b607f94509450505050610ebf565b6000610e9682611eba565b9050610eb2610ea682607f6128ab565b60ff1683901c82611f7f565b95509350610ebf92505050565b94509492505050565b600080608454608354610edb91906127c2565b608554608654919250610a719183919063ffffffff16866105f8565b6000808080806fd3094c70f034de4b96ff7d5b6f99fcd88610610f6857610f2e6f40000000000000000000000000000000856127d5565b93506fd3094c70f034de4b96ff7d5b6f99fcd8610f5b6f800000000000000000000000000000008861280a565b610f659190612850565b95505b6fa45af1e1f40c333b3de1db4dd55f29a78610610fd357610f996f20000000000000000000000000000000856127d5565b93506fa45af1e1f40c333b3de1db4dd55f29a7610fc66f800000000000000000000000000000008861280a565b610fd09190612850565b95505b6f910b022db7ae67ce76b441c27035c6a1861061103e576110046f10000000000000000000000000000000856127d5565b93506f910b022db7ae67ce76b441c27035c6a16110316f800000000000000000000000000000008861280a565b61103b9190612850565b95505b6f88415abbe9a76bead8d00cf112e4d4a886106110a95761106f6f08000000000000000000000000000000856127d5565b93506f88415abbe9a76bead8d00cf112e4d4a861109c6f800000000000000000000000000000008861280a565b6110a69190612850565b95505b6f84102b00893f64c705e841d5d4064bd38610611114576110da6f04000000000000000000000000000000856127d5565b93506f84102b00893f64c705e841d5d4064bd36111076f800000000000000000000000000000008861280a565b6111119190612850565b95505b6f8204055aaef1c8bd5c3259f4822735a2861061117f576111456f02000000000000000000000000000000856127d5565b93506f8204055aaef1c8bd5c3259f4822735a26111726f800000000000000000000000000000008861280a565b61117c9190612850565b95505b6f810100ab00222d861931c15e39b44e9986106111ea576111b06f01000000000000000000000000000000856127d5565b93506f810100ab00222d861931c15e39b44e996111dd6f800000000000000000000000000000008861280a565b6111e79190612850565b95505b6f808040155aabbbe9451521693554f73386106112545761121a6e800000000000000000000000000000856127d5565b93506f808040155aabbbe9451521693554f7336112476f800000000000000000000000000000008861280a565b6112519190612850565b95505b61126e6f80000000000000000000000000000000876127c2565b92508291506f8000000000000000000000000000000061128e838061280a565b6112989190612850565b90507001000000000000000000000000000000006112b684826127c2565b6112c0908461280a565b6112ca9190612850565b6112d490856127d5565b93506f800000000000000000000000000000006112f1828461280a565b6112fb9190612850565b9150700200000000000000000000000000000000611329846faaaaaaaaaaaaaaaaaaaaaaaaaaaaaaaa6127c2565b611333908461280a565b61133d9190612850565b61134790856127d5565b93506f80000000000000000000000000000000611364828461280a565b61136e9190612850565b915070030000000000000000000000000000000061139c846f999999999999999999999999999999996127c2565b6113a6908461280a565b6113b09190612850565b6113ba90856127d5565b93506f800000000000000000000000000000006113d7828461280a565b6113e19190612850565b915070040000000000000000000000000000000061140f846f924924924924924924924924924924926127c2565b611419908461280a565b6114239190612850565b61142d90856127d5565b93506f8000000000000000000000000000000061144a828461280a565b6114549190612850565b9150700500000000000000000000000000000000611482846f8e38e38e38e38e38e38e38e38e38e38e6127c2565b61148c908461280a565b6114969190612850565b6114a090856127d5565b93506f800000000000000000000000000000006114bd828461280a565b6114c79190612850565b91507006000000000000000000000000000000006114f5846f8ba2e8ba2e8ba2e8ba2e8ba2e8ba2e8b6127c2565b6114ff908461280a565b6115099190612850565b61151390856127d5565b93506f80000000000000000000000000000000611530828461280a565b61153a9190612850565b9150700700000000000000000000000000000000611568846f89d89d89d89d89d89d89d89d89d89d896127c2565b611572908461280a565b61157c9190612850565b61158690856127d5565b93506f800000000000000000000000000000006115a3828461280a565b6115ad9190612850565b91507008000000000000000000000000000000006115db846f888888888888888888888888888888886127c2565b6115e5908461280a565b6115ef9190612850565b6115f990856127d5565b9695505050505050565b60008082700100000000000000000000000000000000811061166d57600061164361163e6f8000000000000000000000000000000084612850565b6125e8565b60ff811692831c92909150611669906f800000000000000000000000000000009061280a565b9250505b6f8000000000000000000000000000000081111561170757607f5b60ff811615611705576f800000000000000000000000000000006116ac838061280a565b6116b69190612850565b915070010000000000000000000000000000000082106116f557600191821c916116e090826128ab565b60ff166001901b836116f291906127d5565b92505b6116fe816128c4565b9050611688565b505b6f05b9de1d10bf4103d647b0955897ba806117326f03f80fe03f80fe03f80fe03f80fe03f88461280a565b6105f09190612850565b600080808061175b6f10000000000000000000000000000000866128ff565b91508190506f8000000000000000000000000000000061177b828061280a565b6117859190612850565b9050611799816710e1b3be415a000061280a565b6117a390846127d5565b92506f800000000000000000000000000000006117c0838361280a565b6117ca9190612850565b90506117de816705a0913f6b1e000061280a565b6117e890846127d5565b92506f80000000000000000000000000000000611805838361280a565b61180f9190612850565b905061182381670168244fdac7800061280a565b61182d90846127d5565b92506f8000000000000000000000000000000061184a838361280a565b6118549190612850565b905061186781664807432bc1800061280a565b61187190846127d5565b92506f8000000000000000000000000000000061188e838361280a565b6118989190612850565b90506118ab81660c0135dca0400061280a565b6118b590846127d5565b92506f800000000000000000000000000000006118d2838361280a565b6118dc9190612850565b90506118ef816601b707b1cdc00061280a565b6118f990846127d5565b92506f80000000000000000000000000000000611916838361280a565b6119209190612850565b9050611932816536e0f639b80061280a565b61193c90846127d5565b92506f80000000000000000000000000000000611959838361280a565b6119639190612850565b905061197581650618fee9f80061280a565b61197f90846127d5565b92506f8000000000000000000000000000000061199c838361280a565b6119a69190612850565b90506119b781649c197dcc0061280a565b6119c190846127d5565b92506f800000000000000000000000000000006119de838361280a565b6119e89190612850565b90506119f981640e30dce40061280a565b611a0390846127d5565b92506f80000000000000000000000000000000611a20838361280a565b611a2a9190612850565b9050611a3b8164012ebd130061280a565b611a4590846127d5565b92506f80000000000000000000000000000000611a62838361280a565b611a6c9190612850565b9050611a7c816317499f0061280a565b611a8690846127d5565b92506f80000000000000000000000000000000611aa3838361280a565b611aad9190612850565b9050611abd816301a9d48061280a565b611ac790846127d5565b92506f80000000000000000000000000000000611ae4838361280a565b611aee9190612850565b9050611afd81621c638061280a565b611b0790846127d5565b92506f80000000000000000000000000000000611b24838361280a565b611b2e9190612850565b9050611b3d816201c63861280a565b611b4790846127d5565b92506f80000000000000000000000000000000611b64838361280a565b611b6e9190612850565b9050611b7c81611ab861280a565b611b8690846127d5565b92506f80000000000000000000000000000000611ba3838361280a565b611bad9190612850565b9050611bbb8161017c61280a565b611bc590846127d5565b92506f80000000000000000000000000000000611be2838361280a565b611bec9190612850565b9050611bf981601461280a565b611c0390846127d5565b92506f80000000000000000000000000000000611c20838361280a565b611c2a9190612850565b9050611c3781600161280a565b611c4190846127d5565b92506f8000000000000000000000000000000082611c676721c3677c82b4000086612850565b611c7191906127d5565b611c7b91906127d5565b92506f10000000000000000000000000000000851615611ccf5770018ebef9eac820ae8682b9793ac6d1e776611cc2847001c3d6a24ed82218787d624d3e5eba95f961280a565b611ccc9190612850565b92505b6f20000000000000000000000000000000851615611d21577001368b2fc6f9609fe7aceb46aa619baed4611d148470018ebef9eac820ae8682b9793ac6d1e77861280a565b611d1e9190612850565b92505b6f40000000000000000000000000000000851615611d72576fbc5ab1b16779be3575bd8f0520a9f21f611d65847001368b2fc6f9609fe7aceb46aa619baed561280a565b611d6f9190612850565b92505b6f80000000000000000000000000000000851615611dc2576f454aaa8efe072e7f6ddbab84b40a55c9611db5846fbc5ab1b16779be3575bd8f0520a9f21e61280a565b611dbf9190612850565b92505b700100000000000000000000000000000000851615611e13576f0960aadc109e7a3bf4578099615711ea611e06846f454aaa8efe072e7f6ddbab84b40a55c561280a565b611e109190612850565b92505b700200000000000000000000000000000000851615611e63576e2bf84208204f5977f9a8cf01fdce3d611e56846f0960aadc109e7a3bf4578099615711d761280a565b611e609190612850565b92505b700400000000000000000000000000000000851615611eb1576d03c6ab775dd0b95b4cbee7e65d11611ea4846e2bf84208204f5977f9a8cf01fdc30761280a565b611eae9190612850565b92505b50909392505050565b60006020607f5b60ff8116611ed0836001612913565b60ff161015611f235760006002611ee78385612913565b611ef1919061292c565b90508460008260ff1660808110611f0a57611f0a61294e565b015410611f1957809250611f1d565b8091505b50611ec1565b8360008260ff1660808110611f3a57611f3a61294e565b015410611f48579392505050565b8360008360ff1660808110611f5f57611f5f61294e565b015410611f6d575092915050565b611f7561297d565b5060009392505050565b6000828160ff8416611f91838061280a565b901c9150611faf826f03442c4e6074a82f1797f72ac000000061280a565b611fb990826127d5565b905060ff8416611fc9868461280a565b901c9150611fe7826f0116b96f757c380fb287fd0e4000000061280a565b611ff190826127d5565b905060ff8416612001868461280a565b901c915061201e826e45ae5bdd5f0e03eca1ff439000000061280a565b61202890826127d5565b905060ff8416612038868461280a565b901c9150612055826e0defabf91302cd95b9ffda5000000061280a565b61205f90826127d5565b905060ff841661206f868461280a565b901c915061208c826e02529ca9832b22439efff9b800000061280a565b61209690826127d5565b905060ff84166120a6868461280a565b901c91506120c2826d54f1cf12bd04e516b6da8800000061280a565b6120cc90826127d5565b905060ff84166120dc868461280a565b901c91506120f8826d0a9e39e257a09ca2d6db5100000061280a565b61210290826127d5565b905060ff8416612112868461280a565b901c915061212e826d012e066e7b839fa050c30900000061280a565b61213890826127d5565b905060ff8416612148868461280a565b901c9150612163826c1e33d7d926c329a1ad1a80000061280a565b61216d90826127d5565b905060ff841661217d868461280a565b901c9150612198826c02bee513bdb4a6b19b5f80000061280a565b6121a290826127d5565b905060ff84166121b2868461280a565b901c91506121cc826b3a9316fa79b88eccf2a0000061280a565b6121d690826127d5565b905060ff84166121e6868461280a565b901c9150612200826b048177ebe1fa81237520000061280a565b61220a90826127d5565b905060ff841661221a868461280a565b901c9150612233826a5263fe90242dcbacf0000061280a565b61223d90826127d5565b905060ff841661224d868461280a565b901c9150612266826a057e22099c030d9410000061280a565b61227090826127d5565b905060ff8416612280868461280a565b901c9150612298826957e22099c030d941000061280a565b6122a290826127d5565b905060ff84166122b2868461280a565b901c91506122ca8269052b6b5456997631000061280a565b6122d490826127d5565b905060ff84166122e4868461280a565b901c91506122fb82684985f67696bf74800061280a565b61230590826127d5565b905060ff8416612315868461280a565b901c915061232c826803dea12ea99e49800061280a565b61233690826127d5565b905060ff8416612346868461280a565b901c915061235c826731880f2214b6e00061280a565b61236690826127d5565b905060ff8416612376868461280a565b901c915061238c8267025bcff56eb3600061280a565b61239690826127d5565b905060ff84166123a6868461280a565b901c91506123bb82661b722e10ab100061280a565b6123c590826127d5565b905060ff84166123d5868461280a565b901c91506123ea826601317c7007700061280a565b6123f490826127d5565b905060ff8416612404868461280a565b901c915061241882650cba84aafa0061280a565b61242290826127d5565b905060ff8416612432868461280a565b901c9150612445826482573a0a0061280a565b61244f90826127d5565b905060ff841661245f868461280a565b901c9150612472826405035ad90061280a565b61247c90826127d5565b905060ff841661248c868461280a565b901c915061249e82632f881b0061280a565b6124a890826127d5565b905060ff84166124b8868461280a565b901c91506124ca826301b2934061280a565b6124d490826127d5565b905060ff84166124e4868461280a565b901c91506124f582620efc4061280a565b6124ff90826127d5565b905060ff841661250f868461280a565b901c915061251f82617fe061280a565b61252990826127d5565b905060ff8416612539868461280a565b901c91506125498261042061280a565b61255390826127d5565b905060ff8416612563868461280a565b901c915061257282602161280a565b61257c90826127d5565b905060ff841661258c868461280a565b901c915061259b82600161280a565b6125a590826127d5565b9050600160ff85161b856125c96f0688589cc0e9505e2f2fee558000000084612850565b6125d391906127d5565b6125dd91906127d5565b925050505b92915050565b6000808261010081101561261c575b600181111561261757600190811c906126109083612913565b91506125f7565b612650565b60805b60ff81161561264e57600160ff82161b8210612643579182179160ff81169190911c905b60011c607f1661261f565b505b5092915050565b6000806000806080858703121561266d57600080fd5b8435935060208501359250604085013563ffffffff8116811461268f57600080fd5b9396929550929360600135925050565b600060208083528351808285015260005b818110156126cc578581018301518582016040015282016126b0565b5060006040828601015260407fffffffffffffffffffffffffffffffffffffffffffffffffffffffffffffffe0601f8301168501019250505092915050565b60006020828403121561271d57600080fd5b5035919050565b803573ffffffffffffffffffffffffffffffffffffffff8116811461274857600080fd5b919050565b6000806000806080858703121561276357600080fd5b61276c85612724565b9350602085013592506040850135915061278860608601612724565b905092959194509250565b7f4e487b7100000000000000000000000000000000000000000000000000000000600052601160045260246000fd5b818103818111156125e2576125e2612793565b808201808211156125e2576125e2612793565b6000602082840312156127fa57600080fd5b81518015158114610a7157600080fd5b80820281158282048414176125e2576125e2612793565b7f4e487b7100000000000000000000000000000000000000000000000000000000600052601260045260246000fd5b60008261285f5761285f612821565b500490565b60006020828403121561287657600080fd5b5051919050565b60008060006060848603121561289257600080fd5b8351925060208401519150604084015190509250925092565b60ff82811682821603908111156125e2576125e2612793565b600060ff8216806128d7576128d7612793565b7fffffffffffffffffffffffffffffffffffffffffffffffffffffffffffffffff0192915050565b60008261290e5761290e612821565b500690565b60ff81811683821601908111156125e2576125e2612793565b600060ff83168061293f5761293f612821565b8060ff84160491505092915050565b7f4e487b7100000000000000000000000000000000000000000000000000000000600052603260045260246000fd5b7f4e487b7100000000000000000000000000000000000000000000000000000000600052600160045260246000fd",
    "linkReferences": {}
  },
  "methodIdentifiers": {
    "aerodromeRouter()": "e18e3a68",
    "buyTokens()": "d0febe4c",
    "calculateMarketCap()": "27c13f86",
    "calculatePurchaseReturn(uint256,uint256,uint32,uint256)": "29a00e7c",
    "calculateSaleReturn(uint256,uint256,uint32,uint256)": "49f9b0f7",
    "ethBalance()": "4e6630b0",
    "getTokenPriceinETH()": "b6da859b",
    "initialize(address,uint256,uint256,address)": "9e3d87cd",
    "launchboxErc20Balance()": "f96a80e8",
    "launchboxErc20BalanceReceived()": "f0d30bd9",
    "marketCapThreshold()": "70b0aec5",
    "maxSupply()": "d5abeb01",
    "reserveRatio()": "0c7d5cd8",
    "saleActive()": "68428a1b",
    "sellTokens(uint256)": "6c11bcd3",
    "token()": "fc0c546a",
    "version()": "54fd4d50"
  },
  "id": 48
}