{
  "abi": [
    {
      "type": "receive",
      "stateMutability": "payable"
    },
    {
      "type": "function",
      "name": "V_ETH_BALANCE",
      "inputs": [],
      "outputs": [
        {
          "name": "",
          "type": "uint256",
          "internalType": "uint256"
        }
      ],
      "stateMutability": "view"
    },
    {
      "type": "function",
      "name": "WETH_USDC_PAIR",
      "inputs": [],
      "outputs": [
        {
          "name": "",
          "type": "address",
          "internalType": "contract IPool"
        }
      ],
      "stateMutability": "view"
    },
    {
      "type": "function",
      "name": "aerodromeRouter",
      "inputs": [],
      "outputs": [
        {
          "name": "",
          "type": "address",
          "internalType": "contract IRouter"
        }
      ],
      "stateMutability": "view"
    },
    {
      "type": "function",
      "name": "buyTokens",
      "inputs": [],
      "outputs": [],
      "stateMutability": "payable"
    },
    {
      "type": "function",
      "name": "calculatePurchaseTokenOut",
      "inputs": [
        {
          "name": "amountETHIn",
          "type": "uint256",
          "internalType": "uint256"
        }
      ],
      "outputs": [
        {
          "name": "",
          "type": "uint256",
          "internalType": "uint256"
        },
        {
          "name": "",
          "type": "uint256",
          "internalType": "uint256"
        }
      ],
      "stateMutability": "view"
    },
    {
      "type": "function",
      "name": "calculateSaleTokenOut",
      "inputs": [
        {
          "name": "amountTokenIn",
          "type": "uint256",
          "internalType": "uint256"
        }
      ],
      "outputs": [
        {
          "name": "",
          "type": "uint256",
          "internalType": "uint256"
        },
        {
          "name": "",
          "type": "uint256",
          "internalType": "uint256"
        }
      ],
      "stateMutability": "view"
    },
    {
      "type": "function",
      "name": "ethBalance",
      "inputs": [],
      "outputs": [
        {
          "name": "",
          "type": "uint256",
          "internalType": "uint256"
        }
      ],
      "stateMutability": "view"
    },
    {
      "type": "function",
      "name": "feeReceiver",
      "inputs": [],
      "outputs": [
        {
          "name": "",
          "type": "address",
          "internalType": "address"
        }
      ],
      "stateMutability": "view"
    },
    {
      "type": "function",
      "name": "getTokenPriceinETH",
      "inputs": [],
      "outputs": [
        {
          "name": "ethAmount",
          "type": "uint256",
          "internalType": "uint256"
        }
      ],
      "stateMutability": "view"
    },
    {
      "type": "function",
      "name": "initialize",
      "inputs": [
        {
          "name": "_tokenAddress",
          "type": "address",
          "internalType": "address"
        },
        {
          "name": "_feeReceiver",
          "type": "address",
          "internalType": "address"
        },
        {
          "name": "_tradeFee",
          "type": "uint256",
          "internalType": "uint256"
        },
        {
          "name": "_maxSupply",
          "type": "uint256",
          "internalType": "uint256"
        },
        {
          "name": "_marketCapThreshold",
          "type": "uint256",
          "internalType": "uint256"
        },
        {
          "name": "_aerodromeRouter",
          "type": "address",
          "internalType": "address"
        }
      ],
      "outputs": [],
      "stateMutability": "payable"
    },
    {
      "type": "function",
      "name": "launchboxErc20Balance",
      "inputs": [],
      "outputs": [
        {
          "name": "",
          "type": "uint256",
          "internalType": "uint256"
        }
      ],
      "stateMutability": "view"
    },
    {
      "type": "function",
      "name": "marketCap",
      "inputs": [],
      "outputs": [
        {
          "name": "",
          "type": "uint256",
          "internalType": "uint256"
        }
      ],
      "stateMutability": "view"
    },
    {
      "type": "function",
      "name": "marketCapThreshold",
      "inputs": [],
      "outputs": [
        {
          "name": "",
          "type": "uint256",
          "internalType": "uint256"
        }
      ],
      "stateMutability": "view"
    },
    {
      "type": "function",
      "name": "maxSupply",
      "inputs": [],
      "outputs": [
        {
          "name": "",
          "type": "uint256",
          "internalType": "uint256"
        }
      ],
      "stateMutability": "view"
    },
    {
      "type": "function",
      "name": "saleActive",
      "inputs": [],
      "outputs": [
        {
          "name": "",
          "type": "bool",
          "internalType": "bool"
        }
      ],
      "stateMutability": "view"
    },
    {
      "type": "function",
      "name": "sellTokens",
      "inputs": [
        {
          "name": "tokenAmount",
          "type": "uint256",
          "internalType": "uint256"
        }
      ],
      "outputs": [],
      "stateMutability": "nonpayable"
    },
    {
      "type": "function",
      "name": "token",
      "inputs": [],
      "outputs": [
        {
          "name": "",
          "type": "address",
          "internalType": "contract IERC20"
        }
      ],
      "stateMutability": "view"
    },
    {
      "type": "function",
      "name": "tradeFee",
      "inputs": [],
      "outputs": [
        {
          "name": "",
          "type": "uint256",
          "internalType": "uint256"
        }
      ],
      "stateMutability": "view"
    },
    {
      "type": "event",
      "name": "BondingEnded",
      "inputs": [
        {
          "name": "totalEth",
          "type": "uint256",
          "indexed": false,
          "internalType": "uint256"
        },
        {
          "name": "totalTokens",
          "type": "uint256",
          "indexed": false,
          "internalType": "uint256"
        }
      ],
      "anonymous": false
    },
    {
      "type": "event",
      "name": "ExchangeInitialized",
      "inputs": [
        {
          "name": "token",
          "type": "address",
          "indexed": false,
          "internalType": "address"
        },
        {
          "name": "tradeFee",
          "type": "uint256",
          "indexed": false,
          "internalType": "uint256"
        },
        {
          "name": "feeReceiver",
          "type": "address",
          "indexed": false,
          "internalType": "address"
        },
        {
          "name": "maxSupply",
          "type": "uint256",
          "indexed": false,
          "internalType": "uint256"
        }
      ],
      "anonymous": false
    },
    {
      "type": "event",
      "name": "TokenBuy",
      "inputs": [
        {
          "name": "ethIn",
          "type": "uint256",
          "indexed": false,
          "internalType": "uint256"
        },
        {
          "name": "tokenOut",
          "type": "uint256",
          "indexed": false,
          "internalType": "uint256"
        },
        {
          "name": "fee",
          "type": "uint256",
          "indexed": false,
          "internalType": "uint256"
        },
        {
          "name": "buyer",
          "type": "address",
          "indexed": false,
          "internalType": "address"
        }
      ],
      "anonymous": false
    },
    {
      "type": "event",
      "name": "TokenSell",
      "inputs": [
        {
          "name": "tokenIn",
          "type": "uint256",
          "indexed": false,
          "internalType": "uint256"
        },
        {
          "name": "ethOut",
          "type": "uint256",
          "indexed": false,
          "internalType": "uint256"
        },
        {
          "name": "fee",
          "type": "uint256",
          "indexed": false,
          "internalType": "uint256"
        },
        {
          "name": "seller",
          "type": "address",
          "indexed": false,
          "internalType": "address"
        }
      ],
      "anonymous": false
    },
    {
      "type": "error",
      "name": "ExchangeInactive",
      "inputs": []
    },
    {
      "type": "error",
      "name": "FeeTransferFailed",
      "inputs": []
    },
    {
      "type": "error",
      "name": "MaxSupplyCannotBeLowerThanSuppliedTokens",
      "inputs": []
    },
    {
      "type": "error",
      "name": "NotEnoughETH",
      "inputs": []
    },
    {
      "type": "error",
      "name": "PurchaseExceedsSupply",
      "inputs": []
    }
  ],
  "bytecode": {
    "object": "0x608060405234801561001057600080fd5b50611197806100206000396000f3fe60806040526004361061012d5760003560e01c8063b1a5d12d116100a5578063d5abeb0111610074578063f96a80e811610059578063f96a80e814610343578063f995c43d14610359578063fc0c546a1461038157600080fd5b8063d5abeb0114610300578063e18e3a681461031657600080fd5b8063b1a5d12d1461027e578063b3f0067414610291578063b6da859b146102e3578063d0febe4c146102f857600080fd5b806368428a1b116100fc57806370b0aec5116100e157806370b0aec514610213578063a367895614610229578063ac7629571461025e57600080fd5b806368428a1b146101b15780636c11bcd3146101f357600080fd5b80631eef4b781461014157806324bcdfbd146101705780632c135b93146101865780634e6630b01461019b57600080fd5b3661013c5761013a6103ae565b005b600080fd5b34801561014d57600080fd5b5061015d6714d1120d7b16000081565b6040519081526020015b60405180910390f35b34801561017c57600080fd5b5061015d60055481565b34801561019257600080fd5b5061015d61040e565b3480156101a757600080fd5b5061015d60045481565b3480156101bd57600080fd5b506006546101e39074010000000000000000000000000000000000000000900460ff1681565b6040519015158152602001610167565b3480156101ff57600080fd5b5061013a61020e366004610fd9565b61041d565b34801561021f57600080fd5b5061015d60025481565b34801561023557600080fd5b50610249610244366004610fd9565b61047e565b60408051928352602083019190915201610167565b34801561026a57600080fd5b50610249610279366004610fd9565b6104b5565b61013a61028c36600461101b565b6104e2565b34801561029d57600080fd5b506006546102be9073ffffffffffffffffffffffffffffffffffffffff1681565b60405173ffffffffffffffffffffffffffffffffffffffff9091168152602001610167565b3480156102ef57600080fd5b5061015d6106bf565b61013a6103ae565b34801561030c57600080fd5b5061015d60015481565b34801561032257600080fd5b506007546102be9073ffffffffffffffffffffffffffffffffffffffff1681565b34801561034f57600080fd5b5061015d60035481565b34801561036557600080fd5b506102be73cdac0d6c6c59727a65f871236188350531885c4381565b34801561038d57600080fd5b506000546102be9073ffffffffffffffffffffffffffffffffffffffff1681565b60065474010000000000000000000000000000000000000000900460ff16610402576040517f6fa0109000000000000000000000000000000000000000000000000000000000815260040160405180910390fd5b61040c34336106c9565b565b6000610418610908565b905090565b60065474010000000000000000000000000000000000000000900460ff16610471576040517f6fa0109000000000000000000000000000000000000000000000000000000000815260040160405180910390fd5b61047b813361094f565b50565b600080600060035490506104ab84826714d1120d7b1600006004546104a391906110a9565b600554610c2d565b9250925050915091565b600080600060035490506104ab846714d1120d7b1600006004546104d991906110a9565b83600554610c2d565b600680546000805473ffffffffffffffffffffffffffffffffffffffff8a81167fffffffffffffffffffffffff000000000000000000000000000000000000000092831681179093556007805487831693169290921790915560058890556001879055600286905588167fffffffffffffffffffffff0000000000000000000000000000000000000000009092169190911774010000000000000000000000000000000000000000179091556040517f70a082310000000000000000000000000000000000000000000000000000000081523060048201526370a0823190602401602060405180830381865afa1580156105e0573d6000803e3d6000fd5b505050506040513d601f19601f8201168201806040525081019061060491906110c2565b60035534156106175761061734336106c9565b476004556003546001541015610659576040517f94a04ecc00000000000000000000000000000000000000000000000000000000815260040160405180910390fd5b6040805173ffffffffffffffffffffffffffffffffffffffff8881168252602082018790528716818301526060810185905290517f227bf196f6443a8de89e5ca113a24adbc095a4c021307380986916f9c8c995f99181900360800190a1505050505050565b6000610418610d0e565b6000806106d5846104b5565b91509150600354821115610715576040517f66f7823b00000000000000000000000000000000000000000000000000000000815260040160405180910390fd5b80156107b75760065460405160009173ffffffffffffffffffffffffffffffffffffffff169083908381818185875af1925050503d8060008114610775576040519150601f19603f3d011682016040523d82523d6000602084013e61077a565b606091505b50509050806107b5576040517f4033e4e300000000000000000000000000000000000000000000000000000000815260040160405180910390fd5b505b81600360008282546107c991906110db565b909155506107d9905081856110db565b600460008282546107ea91906110a9565b90915550506000546040517fa9059cbb00000000000000000000000000000000000000000000000000000000815273ffffffffffffffffffffffffffffffffffffffff8581166004830152602482018590529091169063a9059cbb906044016020604051808303816000875af1158015610868573d6000803e3d6000fd5b505050506040513d601f19601f8201168201806040525081019061088c91906110ee565b50604080518581526020810184905290810182905273ffffffffffffffffffffffffffffffffffffffff841660608201527f7480906ebd104a6d59b01553a078610f77a08ac2216d4b046f920bed1e5108ea9060800160405180910390a16002546108f5610908565b1061090257610902610d3b565b50505050565b6000670de0b6b3a76400008061091c610f15565b610924610d0e565b61092e9190611117565b610938919061112e565b6001546109459190611117565b610418919061112e565b60008061095b8461047e565b91509150816004600082825461097191906110db565b90915550610981905081856110db565b6003600082825461099291906110a9565b90915550506000546040517f23b872dd00000000000000000000000000000000000000000000000000000000815273ffffffffffffffffffffffffffffffffffffffff858116600483015230602483015260448201879052909116906323b872dd906064016020604051808303816000875af1158015610a16573d6000803e3d6000fd5b505050506040513d601f19601f82011682018060405250810190610a3a91906110ee565b610aa5576040517f08c379a000000000000000000000000000000000000000000000000000000000815260206004820152600f60248201527f5472616e73666572206661696c6564000000000000000000000000000000000060448201526064015b60405180910390fd5b8015610b4c576000546006546040517fa9059cbb00000000000000000000000000000000000000000000000000000000815273ffffffffffffffffffffffffffffffffffffffff91821660048201526024810184905291169063a9059cbb906044016020604051808303816000875af1158015610b26573d6000803e3d6000fd5b505050506040513d601f19601f82011682018060405250810190610b4a91906110ee565b505b81471015610b86576040517f583aa02600000000000000000000000000000000000000000000000000000000815260040160405180910390fd5b60405173ffffffffffffffffffffffffffffffffffffffff84169083156108fc029084906000818181858888f19350505050158015610bc9573d6000803e3d6000fd5b50604080518581526020810184905290810182905273ffffffffffffffffffffffffffffffffffffffff841660608201527f5f8ccb668d2a9f5f48270b12bfb6a77914b45591e9ca6f9f8a87830918c722ed9060800160405180910390a150505050565b60008060008611610c9a576040517f08c379a000000000000000000000000000000000000000000000000000000000815260206004820181905260248201527f416d6f756e7420696e206d7573742062652067726561746572207468616e20306044820152606401610a9c565b6000610ca8846103e86110db565b610cb29088611117565b90506000610cc08683611117565b9050600082610cd1896103e8611117565b610cdb91906110a9565b9050610ce7818361112e565b6103e8610cf4888c611117565b610cfe919061112e565b9450945050505094509492505050565b60006003546004546714d1120d7b160000610d2991906110a9565b61094590670de0b6b3a7640000611117565b600680547fffffffffffffffffffffff00ffffffffffffffffffffffffffffffffffffffff169055600354600480546000546007546040517f095ea7b300000000000000000000000000000000000000000000000000000000815273ffffffffffffffffffffffffffffffffffffffff9182169481019490945260248401859052919291169063095ea7b3906044016020604051808303816000875af1158015610de9573d6000803e3d6000fd5b505050506040513d601f19601f82011682018060405250810190610e0d91906110ee565b50600754600080546040517fb7e0d4c000000000000000000000000000000000000000000000000000000000815273ffffffffffffffffffffffffffffffffffffffff9182166004820152602481018390526044810186905260648101839052608481019290925261dead60a48301524260c48301529091169063b7e0d4c090839060e40160606040518083038185885af1158015610eb0573d6000803e3d6000fd5b50505050506040513d601f19601f82011682018060405250810190610ed59190611169565b505060408051838152602081018590527f0fb5fe849b3f01f99b1c15ca5536d36fe2ca08bd7c0cfe4e6ad183586139029192500160405180910390a15050565b600080600073cdac0d6c6c59727a65f871236188350531885c4373ffffffffffffffffffffffffffffffffffffffff16630902f1ac6040518163ffffffff1660e01b8152600401606060405180830381865afa158015610f79573d6000803e3d6000fd5b505050506040513d601f19601f82011682018060405250810190610f9d9190611169565b509092509050600082610fb58364e8d4a51000611117565b610fc790670de0b6b3a7640000611117565b610fd1919061112e565b949350505050565b600060208284031215610feb57600080fd5b5035919050565b803573ffffffffffffffffffffffffffffffffffffffff8116811461101657600080fd5b919050565b60008060008060008060c0878903121561103457600080fd5b61103d87610ff2565b955061104b60208801610ff2565b945060408701359350606087013592506080870135915061106e60a08801610ff2565b90509295509295509295565b7f4e487b7100000000000000000000000000000000000000000000000000000000600052601160045260246000fd5b808201808211156110bc576110bc61107a565b92915050565b6000602082840312156110d457600080fd5b5051919050565b818103818111156110bc576110bc61107a565b60006020828403121561110057600080fd5b8151801515811461111057600080fd5b9392505050565b80820281158282048414176110bc576110bc61107a565b600082611164577f4e487b7100000000000000000000000000000000000000000000000000000000600052601260045260246000fd5b500490565b60008060006060848603121561117e57600080fd5b835192506020840151915060408401519050925092509256",
    "linkReferences": {}
  },
  "methodIdentifiers": {
    "V_ETH_BALANCE()": "1eef4b78",
    "WETH_USDC_PAIR()": "f995c43d",
    "aerodromeRouter()": "e18e3a68",
    "buyTokens()": "d0febe4c",
    "calculatePurchaseTokenOut(uint256)": "ac762957",
    "calculateSaleTokenOut(uint256)": "a3678956",
    "ethBalance()": "4e6630b0",
    "feeReceiver()": "b3f00674",
    "getTokenPriceinETH()": "b6da859b",
    "initialize(address,address,uint256,uint256,uint256,address)": "b1a5d12d",
    "launchboxErc20Balance()": "f96a80e8",
    "marketCap()": "2c135b93",
    "marketCapThreshold()": "70b0aec5",
    "maxSupply()": "d5abeb01",
    "saleActive()": "68428a1b",
    "sellTokens(uint256)": "6c11bcd3",
    "token()": "fc0c546a",
    "tradeFee()": "24bcdfbd"
  },
  "id": 36
}