{
  "abi": [
    {
      "inputs": [
        {
          "internalType": "address",
          "name": "_implementation",
          "type": "address"
        }
      ],
      "stateMutability": "nonpayable",
      "type": "constructor"
    },
    {
      "inputs": [],
      "name": "AlreadyInitialized",
      "type": "error"
    },
    {
      "inputs": [],
      "name": "ERC1167FailedCreateClone",
      "type": "error"
    },
    {
      "inputs": [],
      "name": "ImplementationCannotBeNull",
      "type": "error"
    },
    {
      "inputs": [],
      "name": "NewOwnerIsZeroAddress",
      "type": "error"
    },
    {
      "inputs": [],
      "name": "NoHandoverRequest",
      "type": "error"
    },
    {
      "inputs": [],
      "name": "Unauthorized",
      "type": "error"
    },
    {
      "anonymous": false,
      "inputs": [
        {
          "indexed": false,
          "internalType": "address",
          "name": "deployer",
          "type": "address"
        },
        {
          "indexed": false,
          "internalType": "address",
          "name": "deployedTokenAddress",
          "type": "address"
        },
        {
          "indexed": false,
          "internalType": "address",
          "name": "exchangeContract",
          "type": "address"
        }
      ],
      "name": "LaunchboxERC20Created",
      "type": "event"
    },
    {
      "anonymous": false,
      "inputs": [
        {
          "indexed": true,
          "internalType": "address",
          "name": "pendingOwner",
          "type": "address"
        }
      ],
      "name": "OwnershipHandoverCanceled",
      "type": "event"
    },
    {
      "anonymous": false,
      "inputs": [
        {
          "indexed": true,
          "internalType": "address",
          "name": "pendingOwner",
          "type": "address"
        }
      ],
      "name": "OwnershipHandoverRequested",
      "type": "event"
    },
    {
      "anonymous": false,
      "inputs": [
        {
          "indexed": true,
          "internalType": "address",
          "name": "oldOwner",
          "type": "address"
        },
        {
          "indexed": true,
          "internalType": "address",
          "name": "newOwner",
          "type": "address"
        }
      ],
      "name": "OwnershipTransferred",
      "type": "event"
    },
    {
      "inputs": [],
      "name": "cancelOwnershipHandover",
      "outputs": [],
      "stateMutability": "payable",
      "type": "function"
    },
    {
      "inputs": [
        {
          "internalType": "address",
          "name": "pendingOwner",
          "type": "address"
        }
      ],
      "name": "completeOwnershipHandover",
      "outputs": [],
      "stateMutability": "payable",
      "type": "function"
    },
    {
      "inputs": [
        {
          "internalType": "string",
          "name": "_name",
          "type": "string"
        },
        {
          "internalType": "string",
          "name": "_symbol",
          "type": "string"
        },
        {
          "internalType": "uint8",
          "name": "_decimals",
          "type": "uint8"
        },
        {
          "internalType": "uint256",
          "name": "_totalSupply",
          "type": "uint256"
        }
      ],
      "name": "createToken",
      "outputs": [
        {
          "internalType": "address",
          "name": "",
          "type": "address"
        }
      ],
      "stateMutability": "nonpayable",
      "type": "function"
    },
    {
      "inputs": [
        {
          "internalType": "uint256",
          "name": "_tokenId",
          "type": "uint256"
        }
      ],
      "name": "getTokenByID",
      "outputs": [
        {
          "components": [
            {
              "internalType": "address",
              "name": "tokenAddress",
              "type": "address"
            },
            {
              "internalType": "address",
              "name": "deployer",
              "type": "address"
            },
            {
              "internalType": "address",
              "name": "exchangeContract",
              "type": "address"
            }
          ],
          "internalType": "struct ILaunchboxERC20Factory.TokenInfo",
          "name": "",
          "type": "tuple"
        }
      ],
      "stateMutability": "view",
      "type": "function"
    },
    {
      "inputs": [],
      "name": "getTokenId",
      "outputs": [
        {
          "internalType": "uint256",
          "name": "",
          "type": "uint256"
        }
      ],
      "stateMutability": "view",
      "type": "function"
    },
    {
      "inputs": [],
      "name": "getTokens",
      "outputs": [
        {
          "components": [
            {
              "internalType": "address",
              "name": "tokenAddress",
              "type": "address"
            },
            {
              "internalType": "address",
              "name": "deployer",
              "type": "address"
            },
            {
              "internalType": "address",
              "name": "exchangeContract",
              "type": "address"
            }
          ],
          "internalType": "struct ILaunchboxERC20Factory.TokenInfo[]",
          "name": "",
          "type": "tuple[]"
        }
      ],
      "stateMutability": "view",
      "type": "function"
    },
    {
      "inputs": [
        {
          "internalType": "address",
          "name": "_deployer",
          "type": "address"
        }
      ],
      "name": "getTokensbyDeployer",
      "outputs": [
        {
          "components": [
            {
              "internalType": "address",
              "name": "tokenAddress",
              "type": "address"
            },
            {
              "internalType": "address",
              "name": "deployer",
              "type": "address"
            },
            {
              "internalType": "address",
              "name": "exchangeContract",
              "type": "address"
            }
          ],
          "internalType": "struct ILaunchboxERC20Factory.TokenInfo[]",
          "name": "",
          "type": "tuple[]"
        }
      ],
      "stateMutability": "view",
      "type": "function"
    },
    {
      "inputs": [],
      "name": "launchboxERC20Implementation",
      "outputs": [
        {
          "internalType": "address",
          "name": "",
          "type": "address"
        }
      ],
      "stateMutability": "view",
      "type": "function"
    },
    {
      "inputs": [
        {
          "internalType": "address",
          "name": "_newFeeAddress",
          "type": "address"
        }
      ],
      "name": "modifyPlatformFeeAddressRecipient",
      "outputs": [],
      "stateMutability": "nonpayable",
      "type": "function"
    },
    {
      "inputs": [
        {
          "internalType": "uint256",
          "name": "_percentage",
          "type": "uint256"
        }
      ],
      "name": "modifyPlatformFeePercentage",
      "outputs": [],
      "stateMutability": "nonpayable",
      "type": "function"
    },
    {
      "inputs": [],
      "name": "owner",
      "outputs": [
        {
          "internalType": "address",
          "name": "result",
          "type": "address"
        }
      ],
      "stateMutability": "view",
      "type": "function"
    },
    {
      "inputs": [
        {
          "internalType": "uint256",
          "name": "",
          "type": "uint256"
        }
      ],
      "name": "ownerMapping",
      "outputs": [
        {
          "internalType": "address",
          "name": "",
          "type": "address"
        }
      ],
      "stateMutability": "view",
      "type": "function"
    },
    {
      "inputs": [
        {
          "internalType": "address",
          "name": "pendingOwner",
          "type": "address"
        }
      ],
      "name": "ownershipHandoverExpiresAt",
      "outputs": [
        {
          "internalType": "uint256",
          "name": "result",
          "type": "uint256"
        }
      ],
      "stateMutability": "view",
      "type": "function"
    },
    {
      "inputs": [],
      "name": "platformFeePercentage",
      "outputs": [
        {
          "internalType": "uint256",
          "name": "",
          "type": "uint256"
        }
      ],
      "stateMutability": "view",
      "type": "function"
    },
    {
      "inputs": [],
      "name": "renounceOwnership",
      "outputs": [],
      "stateMutability": "payable",
      "type": "function"
    },
    {
      "inputs": [],
      "name": "requestOwnershipHandover",
      "outputs": [],
      "stateMutability": "payable",
      "type": "function"
    },
    {
      "inputs": [
        {
          "internalType": "uint256",
          "name": "",
          "type": "uint256"
        }
      ],
      "name": "tokenMapping",
      "outputs": [
        {
          "internalType": "address",
          "name": "tokenAddress",
          "type": "address"
        },
        {
          "internalType": "address",
          "name": "deployer",
          "type": "address"
        },
        {
          "internalType": "address",
          "name": "exchangeContract",
          "type": "address"
        }
      ],
      "stateMutability": "view",
      "type": "function"
    },
    {
      "inputs": [
        {
          "internalType": "uint256",
          "name": "",
          "type": "uint256"
        }
      ],
      "name": "tokens",
      "outputs": [
        {
          "internalType": "address",
          "name": "tokenAddress",
          "type": "address"
        },
        {
          "internalType": "address",
          "name": "deployer",
          "type": "address"
        },
        {
          "internalType": "address",
          "name": "exchangeContract",
          "type": "address"
        }
      ],
      "stateMutability": "view",
      "type": "function"
    },
    {
      "inputs": [
        {
          "internalType": "address",
          "name": "newOwner",
          "type": "address"
        }
      ],
      "name": "transferOwnership",
      "outputs": [],
      "stateMutability": "payable",
      "type": "function"
    },
    {
      "inputs": [],
      "name": "version",
      "outputs": [
        {
          "internalType": "string",
          "name": "",
          "type": "string"
        }
      ],
      "stateMutability": "view",
      "type": "function"
    }
  ],
  "bytecode": {
    "object": "0x60a060405234801561001057600080fd5b506040516114dc3803806114dc83398101604081905261002f91610067565b6001600160a01b0381166100565760405163f9f4e47960e01b815260040160405180910390fd5b6001600160a01b0316608052610097565b60006020828403121561007957600080fd5b81516001600160a01b038116811461009057600080fd5b9392505050565b6080516114236100b960003960008181610499015261054c01526114236000f3fe60806040526004361061015f5760003560e01c80638c928d25116100c0578063dd320bbd11610074578063f04e283e11610059578063f04e283e146104bb578063f2fde38b146104ce578063fee81cf4146104e157600080fd5b8063dd320bbd14610467578063e8728c511461048757600080fd5b8063aa6ca808116100a5578063aa6ca8081461040f578063c9c8929d14610431578063cdd78cfc1461045157600080fd5b80638c928d25146103855780638da5cb5b146103db57600080fd5b80634f64b2be1161011757806354fd4d50116100fc57806354fd4d5014610307578063715018a61461035d57806378ab2c311461036557600080fd5b80634f64b2be146102a857806354d1f13d146102ff57600080fd5b8063210f5dda11610148578063210f5dda14610216578063256929621461025b5780633aabdf921461026557600080fd5b8063010a38f514610164578063087205f014610188575b600080fd5b34801561017057600080fd5b506002545b6040519081526020015b60405180910390f35b34801561019457600080fd5b506102096101a3366004610eab565b604080516060808201835260008083526020808401829052928401819052938452600482529282902082519384018352805473ffffffffffffffffffffffffffffffffffffffff9081168552600182015481169285019290925260020154169082015290565b60405161017f9190610ec4565b34801561022257600080fd5b50610236610231366004610fdb565b610514565b60405173ffffffffffffffffffffffffffffffffffffffff909116815260200161017f565b610263610674565b005b34801561027157600080fd5b50610236610280366004610eab565b60056020526000908152604090205473ffffffffffffffffffffffffffffffffffffffff1681565b3480156102b457600080fd5b506102c86102c3366004610eab565b6106c4565b6040805173ffffffffffffffffffffffffffffffffffffffff9485168152928416602084015292169181019190915260600161017f565b610263610713565b34801561031357600080fd5b506103506040518060400160405280600581526020017f312e302e3000000000000000000000000000000000000000000000000000000081525081565b60405161017f91906110c3565b61026361074f565b34801561037157600080fd5b50610263610380366004610eab565b610757565b34801561039157600080fd5b506102c86103a0366004610eab565b60046020526000908152604090208054600182015460029092015473ffffffffffffffffffffffffffffffffffffffff918216928216911683565b3480156103e757600080fd5b507fffffffffffffffffffffffffffffffffffffffffffffffffffffffff7487392754610236565b34801561041b57600080fd5b50610424610764565b60405161017f91906110dd565b34801561043d57600080fd5b5061026361044c36600461115a565b6107f8565b34801561045d57600080fd5b5061017560005481565b34801561047357600080fd5b5061042461048236600461115a565b610847565b34801561049357600080fd5b506102367f000000000000000000000000000000000000000000000000000000000000000081565b6102636104c936600461115a565b610a71565b6102636104dc36600461115a565b610ab1565b3480156104ed57600080fd5b506101756104fc36600461115a565b63389a75e1600c908152600091909152602090205490565b60008061052083610ad8565b9050600061052e82856111bf565b905073f175520c52418dfe19c8098071a252da48cd1c1960006105707f0000000000000000000000000000000000000000000000000000000000000000610b94565b6001546040517f561cf2ab00000000000000000000000000000000000000000000000000000000815291925073ffffffffffffffffffffffffffffffffffffffff8084169263561cf2ab926105d5928e928e928e928b928d928c9216906004016111d2565b600060405180830381600087803b1580156105ef57600080fd5b505af1158015610603573d6000803e3d6000fd5b50505050610612338284610c2c565b6040805133815273ffffffffffffffffffffffffffffffffffffffff838116602083015284168183015290517f23448990a96499a570fe25946d27d83bdded894b673fb7c07e304499981584d19181900360600190a198975050505050505050565b60006202a30067ffffffffffffffff164201905063389a75e1600c5233600052806020600c2055337fdbf36a107da19e49527a7176a1babf963b4b0ff8cde35ee35d6cd8f1f9ac7e1d600080a250565b600381815481106106d457600080fd5b600091825260209091206003909102018054600182015460029092015473ffffffffffffffffffffffffffffffffffffffff9182169350918116911683565b63389a75e1600c523360005260006020600c2055337ffa7b8eab7da67f412cc9575ed43464468f9bfbae89d1675917346ca6d8fe3c92600080a2565b61015f610e0d565b61075f610e0d565b600055565b60606003805480602002602001604051908101604052809291908181526020016000905b828210156107ef5760008481526020908190206040805160608101825260038602909201805473ffffffffffffffffffffffffffffffffffffffff908116845260018083015482168587015260029092015416918301919091529083529092019101610788565b50505050905090565b610800610e0d565b600180547fffffffffffffffffffffffff00000000000000000000000000000000000000001673ffffffffffffffffffffffffffffffffffffffff92909216919091179055565b60606000805b6003548110156108d0578373ffffffffffffffffffffffffffffffffffffffff16600382815481106108815761088161123e565b600091825260209091206001600390920201015473ffffffffffffffffffffffffffffffffffffffff16036108be57816108ba8161126d565b9250505b806108c88161126d565b91505061084d565b5060008167ffffffffffffffff8111156108ec576108ec610f01565b60405190808252806020026020018201604052801561095557816020015b60408051606081018252600080825260208083018290529282015282527fffffffffffffffffffffffffffffffffffffffffffffffffffffffffffffffff90920191018161090a5790505b5090506000805b600354811015610a67578573ffffffffffffffffffffffffffffffffffffffff16600382815481106109905761099061123e565b600091825260209091206001600390920201015473ffffffffffffffffffffffffffffffffffffffff1603610a5557600381815481106109d2576109d261123e565b6000918252602091829020604080516060810182526003909302909101805473ffffffffffffffffffffffffffffffffffffffff9081168452600182015481169484019490945260020154909216918101919091528351849084908110610a3b57610a3b61123e565b60200260200101819052508180610a519061126d565b9250505b80610a5f8161126d565b91505061095c565b5090949350505050565b610a79610e0d565b63389a75e1600c52806000526020600c208054421115610aa157636f5e88186000526004601cfd5b60009055610aae81610e45565b50565b610ab9610e0d565b8060601b610acf57637448fbae6000526004601cfd5b610aae81610e45565b6000610ae66012600a6113c5565b610af19060646113d1565b6000541115610b60576040517f08c379a000000000000000000000000000000000000000000000000000000000815260206004820152601d60248201527f50657263656e746167652063616e6e6f74206578636565642031303025000000604482015260640160405180910390fd5b610b6c6012600a6113c5565b610b779060646113d1565b600054610b8490846113d1565b610b8e91906113e8565b92915050565b6000763d602d80600a3d3981f3363d3d373d3d3d363d730000008260601b60e81c176000526e5af43d82803e903d91602b57fd5bf38260781b17602052603760096000f0905073ffffffffffffffffffffffffffffffffffffffff8116610c27576040517fc2f868f400000000000000000000000000000000000000000000000000000000815260040160405180910390fd5b919050565b6040805160608101825273ffffffffffffffffffffffffffffffffffffffff8086168252848116602083019081528482169383019384526003805460018181018355600083815295519183027fc2575a0e9e593c00f959f8c92f12db2869c3395a3b0502d05e2516446f71f85b810180549387167fffffffffffffffffffffffff000000000000000000000000000000000000000094851617905593517fc2575a0e9e593c00f959f8c92f12db2869c3395a3b0502d05e2516446f71f85c8501805491871691841691909117905595517fc2575a0e9e593c00f959f8c92f12db2869c3395a3b0502d05e2516446f71f85d909301805493909416921691909117909155549091610d3b916111bf565b905060038181548110610d5057610d5061123e565b600091825260208083208484526004825260408085206003909402909101805484547fffffffffffffffffffffffff000000000000000000000000000000000000000090811673ffffffffffffffffffffffffffffffffffffffff928316178655600180840154908701805483169184169190911790556002928301549583018054821696831696909617909555600590935290842080549288169290931691909117909155805491610e028361126d565b919050555050505050565b7fffffffffffffffffffffffffffffffffffffffffffffffffffffffff74873927543314610e43576382b429006000526004601cfd5b565b7fffffffffffffffffffffffffffffffffffffffffffffffffffffffff74873927805473ffffffffffffffffffffffffffffffffffffffff9092169182907f8be0079c531659141344cd1fd0a4f28419497f9722a3daafe3b4186f6b6457e0600080a355565b600060208284031215610ebd57600080fd5b5035919050565b60608101610b8e8284805173ffffffffffffffffffffffffffffffffffffffff908116835260208083015182169084015260409182015116910152565b7f4e487b7100000000000000000000000000000000000000000000000000000000600052604160045260246000fd5b600082601f830112610f4157600080fd5b813567ffffffffffffffff80821115610f5c57610f5c610f01565b604051601f83017fffffffffffffffffffffffffffffffffffffffffffffffffffffffffffffffe0908116603f01168101908282118183101715610fa257610fa2610f01565b81604052838152866020858801011115610fbb57600080fd5b836020870160208301376000602085830101528094505050505092915050565b60008060008060808587031215610ff157600080fd5b843567ffffffffffffffff8082111561100957600080fd5b61101588838901610f30565b9550602087013591508082111561102b57600080fd5b5061103887828801610f30565b935050604085013560ff8116811461104f57600080fd5b9396929550929360600135925050565b6000815180845260005b8181101561108557602081850181015186830182015201611069565b5060006020828601015260207fffffffffffffffffffffffffffffffffffffffffffffffffffffffffffffffe0601f83011685010191505092915050565b6020815260006110d6602083018461105f565b9392505050565b6020808252825182820181905260009190848201906040850190845b8181101561114e5761113b838551805173ffffffffffffffffffffffffffffffffffffffff908116835260208083015182169084015260409182015116910152565b92840192606092909201916001016110f9565b50909695505050505050565b60006020828403121561116c57600080fd5b813573ffffffffffffffffffffffffffffffffffffffff811681146110d657600080fd5b7f4e487b7100000000000000000000000000000000000000000000000000000000600052601160045260246000fd5b81810381811115610b8e57610b8e611190565b60e0815260006111e560e083018a61105f565b82810360208401526111f7818a61105f565b60ff98909816604084015250506060810194909452608084019290925273ffffffffffffffffffffffffffffffffffffffff90811660a08401521660c09091015292915050565b7f4e487b7100000000000000000000000000000000000000000000000000000000600052603260045260246000fd5b60007fffffffffffffffffffffffffffffffffffffffffffffffffffffffffffffffff820361129e5761129e611190565b5060010190565b600181815b808511156112fe57817fffffffffffffffffffffffffffffffffffffffffffffffffffffffffffffffff048211156112e4576112e4611190565b808516156112f157918102915b93841c93908002906112aa565b509250929050565b60008261131557506001610b8e565b8161132257506000610b8e565b816001811461133857600281146113425761135e565b6001915050610b8e565b60ff84111561135357611353611190565b50506001821b610b8e565b5060208310610133831016604e8410600b8410161715611381575081810a610b8e565b61138b83836112a5565b807fffffffffffffffffffffffffffffffffffffffffffffffffffffffffffffffff048211156113bd576113bd611190565b029392505050565b60006110d68383611306565b8082028115828204841417610b8e57610b8e611190565b60008261141e577f4e487b7100000000000000000000000000000000000000000000000000000000600052601260045260246000fd5b50049056",
    "linkReferences": {}
  },
  "methodIdentifiers": {
    "cancelOwnershipHandover()": "54d1f13d",
    "completeOwnershipHandover(address)": "f04e283e",
    "createToken(string,string,uint8,uint256)": "210f5dda",
    "getTokenByID(uint256)": "087205f0",
    "getTokenId()": "010a38f5",
    "getTokens()": "aa6ca808",
    "getTokensbyDeployer(address)": "dd320bbd",
    "launchboxERC20Implementation()": "e8728c51",
    "modifyPlatformFeeAddressRecipient(address)": "c9c8929d",
    "modifyPlatformFeePercentage(uint256)": "78ab2c31",
    "owner()": "8da5cb5b",
    "ownerMapping(uint256)": "3aabdf92",
    "ownershipHandoverExpiresAt(address)": "fee81cf4",
    "platformFeePercentage()": "cdd78cfc",
    "renounceOwnership()": "715018a6",
    "requestOwnershipHandover()": "25692962",
    "tokenMapping(uint256)": "8c928d25",
    "tokens(uint256)": "4f64b2be",
    "transferOwnership(address)": "f2fde38b",
    "version()": "54fd4d50"
  },
  "id": 45
}