{
  "abi": [
    {
      "inputs": [
        {
          "internalType": "address",
          "name": "_tokenImplementation",
          "type": "address"
        },
        {
          "internalType": "address",
          "name": "_launchboxExchangeImplementation",
          "type": "address"
        },
        {
          "internalType": "address",
          "name": "_router",
          "type": "address"
        },
        {
          "internalType": "address",
          "name": "_platformFeeReceiver",
          "type": "address"
        },
        {
          "internalType": "uint256",
          "name": "_marketCapThreshold",
          "type": "uint256"
        },
        {
          "internalType": "uint256",
          "name": "_platformFeePercentage",
          "type": "uint256"
        },
        {
          "internalType": "uint256",
          "name": "_communityAllocPercentage",
          "type": "uint256"
        }
      ],
      "stateMutability": "nonpayable",
      "type": "constructor"
    },
    {
      "inputs": [],
      "name": "ERC1167FailedCreateClone",
      "type": "error"
    },
    {
      "inputs": [],
      "name": "EmptyAerodromeRouter",
      "type": "error"
    },
    {
      "inputs": [],
      "name": "EmptyLaunchboxExchangeImplementation",
      "type": "error"
    },
    {
      "inputs": [],
      "name": "EmptyPlatformFeeReceiver",
      "type": "error"
    },
    {
      "inputs": [],
      "name": "EmptyTokenImplementation",
      "type": "error"
    },
    {
      "inputs": [],
      "name": "FeeGreaterThanHundred",
      "type": "error"
    },
    {
      "inputs": [
        {
          "internalType": "address",
          "name": "owner",
          "type": "address"
        }
      ],
      "name": "OwnableInvalidOwner",
      "type": "error"
    },
    {
      "inputs": [
        {
          "internalType": "address",
          "name": "account",
          "type": "address"
        }
      ],
      "name": "OwnableUnauthorizedAccount",
      "type": "error"
    },
    {
      "anonymous": false,
      "inputs": [
        {
          "indexed": false,
          "internalType": "address",
          "name": "newLaunchboxExchangeAddress",
          "type": "address"
        }
      ],
      "name": "LaunchboxExchangeImplementationUpdated",
      "type": "event"
    },
    {
      "anonymous": false,
      "inputs": [
        {
          "indexed": true,
          "internalType": "address",
          "name": "previousOwner",
          "type": "address"
        },
        {
          "indexed": true,
          "internalType": "address",
          "name": "newOwner",
          "type": "address"
        }
      ],
      "name": "OwnershipTransferred",
      "type": "event"
    },
    {
      "anonymous": false,
      "inputs": [
        {
          "indexed": false,
          "internalType": "address",
          "name": "tokenAddress",
          "type": "address"
        },
        {
          "indexed": false,
          "internalType": "address",
          "name": "launchboxExchangeAddress",
          "type": "address"
        },
        {
          "indexed": false,
          "internalType": "address",
          "name": "creator",
          "type": "address"
        }
      ],
      "name": "TokenDeployed",
      "type": "event"
    },
    {
      "anonymous": false,
      "inputs": [
        {
          "indexed": false,
          "internalType": "address",
          "name": "newTokenImplementationAddress",
          "type": "address"
        }
      ],
      "name": "TokenImplementationUpdated",
      "type": "event"
    },
    {
      "anonymous": false,
      "inputs": [
        {
          "indexed": false,
          "internalType": "address",
          "name": "newRouter",
          "type": "address"
        }
      ],
      "name": "UniswapRouterUpdated",
      "type": "event"
    },
    {
      "inputs": [],
      "name": "communityPercentage",
      "outputs": [
        {
          "internalType": "uint256",
          "name": "",
          "type": "uint256"
        }
      ],
      "stateMutability": "view",
      "type": "function"
    },
    {
      "inputs": [
        {
          "internalType": "string",
          "name": "name",
          "type": "string"
        },
        {
          "internalType": "string",
          "name": "symbol",
          "type": "string"
        },
        {
          "internalType": "string",
          "name": "metadataURI",
          "type": "string"
        },
        {
          "internalType": "uint256",
          "name": "maxSupply",
          "type": "uint256"
        }
      ],
      "name": "deployToken",
      "outputs": [
        {
          "internalType": "address",
          "name": "",
          "type": "address"
        },
        {
          "internalType": "address",
          "name": "",
          "type": "address"
        }
      ],
      "stateMutability": "payable",
      "type": "function"
    },
    {
      "inputs": [],
      "name": "launchboxExchangeImplementation",
      "outputs": [
        {
          "internalType": "address",
          "name": "",
          "type": "address"
        }
      ],
      "stateMutability": "view",
      "type": "function"
    },
    {
      "inputs": [],
      "name": "marketCapThreshold",
      "outputs": [
        {
          "internalType": "uint256",
          "name": "",
          "type": "uint256"
        }
      ],
      "stateMutability": "view",
      "type": "function"
    },
    {
      "inputs": [],
      "name": "owner",
      "outputs": [
        {
          "internalType": "address",
          "name": "",
          "type": "address"
        }
      ],
      "stateMutability": "view",
      "type": "function"
    },
    {
      "inputs": [],
      "name": "platformFeePercentage",
      "outputs": [
        {
          "internalType": "uint256",
          "name": "",
          "type": "uint256"
        }
      ],
      "stateMutability": "view",
      "type": "function"
    },
    {
      "inputs": [],
      "name": "renounceOwnership",
      "outputs": [],
      "stateMutability": "nonpayable",
      "type": "function"
    },
    {
      "inputs": [],
      "name": "router",
      "outputs": [
        {
          "internalType": "address",
          "name": "",
          "type": "address"
        }
      ],
      "stateMutability": "view",
      "type": "function"
    },
    {
      "inputs": [
        {
          "internalType": "uint256",
          "name": "_communityPercentage",
          "type": "uint256"
        }
      ],
      "name": "setCommunityPerecentage",
      "outputs": [],
      "stateMutability": "nonpayable",
      "type": "function"
    },
    {
      "inputs": [
        {
          "internalType": "uint256",
          "name": "_newMarketCapThreshold",
          "type": "uint256"
        }
      ],
      "name": "setMarketCapThreshold",
      "outputs": [],
      "stateMutability": "nonpayable",
      "type": "function"
    },
    {
      "inputs": [
        {
          "internalType": "address payable",
          "name": "_platformFeeAddress",
          "type": "address"
        }
      ],
      "name": "setPlatformFeeAddress",
      "outputs": [],
      "stateMutability": "nonpayable",
      "type": "function"
    },
    {
      "inputs": [
        {
          "internalType": "uint256",
          "name": "_platformFeePercentage",
          "type": "uint256"
        }
      ],
      "name": "setPlatformFeePercentage",
      "outputs": [],
      "stateMutability": "nonpayable",
      "type": "function"
    },
    {
      "inputs": [],
      "name": "tokenImplementation",
      "outputs": [
        {
          "internalType": "address",
          "name": "",
          "type": "address"
        }
      ],
      "stateMutability": "view",
      "type": "function"
    },
    {
      "inputs": [
        {
          "internalType": "address",
          "name": "newOwner",
          "type": "address"
        }
      ],
      "name": "transferOwnership",
      "outputs": [],
      "stateMutability": "nonpayable",
      "type": "function"
    }
  ],
  "bytecode": {
    "object": "0x60e06040523480156200001157600080fd5b5060405162000eb138038062000eb18339810160408190526200003491620001eb565b33806200005b57604051631e4fbdf760e01b81526000600482015260240160405180910390fd5b62000066816200017e565b506001600160a01b0387166200008f57604051635a6517ff60e01b815260040160405180910390fd5b6001600160a01b038616620000b75760405163e98232c560e01b815260040160405180910390fd5b6001600160a01b038516620000df57604051633df8233360e01b815260040160405180910390fd5b68056bc75e2d63100000620000f5828462000265565b11156200011557604051637685d5e960e01b815260040160405180910390fd5b6001600160a01b0384166200013d576040516370d956e560e11b815260040160405180910390fd5b600480546001600160a01b0319166001600160a01b0395861617905560019190915560025593811660805291821660a0526005929092551660c0526200028d565b600080546001600160a01b038381166001600160a01b0319831681178455604051919092169283917f8be0079c531659141344cd1fd0a4f28419497f9722a3daafe3b4186f6b6457e09190a35050565b80516001600160a01b0381168114620001e657600080fd5b919050565b600080600080600080600060e0888a0312156200020757600080fd5b6200021288620001ce565b96506200022260208901620001ce565b95506200023260408901620001ce565b94506200024260608901620001ce565b93506080880151925060a0880151915060c0880151905092959891949750929550565b808201808211156200028757634e487b7160e01b600052601160045260246000fd5b92915050565b60805160a05160c051610bdf620002d2600039600081816102c4015261046e0152600081816102f8015261043b01526000818161011601526103af0152610bdf6000f3fe6080604052600436106100dd5760003560e01c8063a1c9973a1161007f578063cdd78cfc11610059578063cdd78cfc1461027c578063f2fde38b14610292578063f887ea40146102b2578063f8a208c1146102e657600080fd5b8063a1c9973a14610206578063c82403d614610246578063c9be579b1461025c57600080fd5b8063715018a6116100bb578063715018a6146101865780638333903e1461019b5780638da5cb5b146101bb5780639375da5a146101e657600080fd5b8063272675b0146100e25780632f3a3d5d1461010457806370b0aec514610162575b600080fd5b3480156100ee57600080fd5b506101026100fd3660046107a9565b61031a565b005b34801561011057600080fd5b506101387f000000000000000000000000000000000000000000000000000000000000000081565b60405173ffffffffffffffffffffffffffffffffffffffff90911681526020015b60405180910390f35b34801561016e57600080fd5b5061017860055481565b604051908152602001610159565b34801561019257600080fd5b50610102610327565b3480156101a757600080fd5b506101026101b63660046107a9565b61032f565b3480156101c757600080fd5b5060005473ffffffffffffffffffffffffffffffffffffffff16610138565b3480156101f257600080fd5b506101026102013660046107e4565b61033c565b6102196102143660046108e2565b61038b565b6040805173ffffffffffffffffffffffffffffffffffffffff938416815292909116602083015201610159565b34801561025257600080fd5b5061017860025481565b34801561026857600080fd5b506101026102773660046107a9565b61058d565b34801561028857600080fd5b5061017860015481565b34801561029e57600080fd5b506101026102ad3660046107e4565b61059a565b3480156102be57600080fd5b506101387f000000000000000000000000000000000000000000000000000000000000000081565b3480156102f257600080fd5b506101387f000000000000000000000000000000000000000000000000000000000000000081565b610322610603565b600255565b6100dd610603565b610337610603565b600155565b610344610603565b600480547fffffffffffffffffffffffff00000000000000000000000000000000000000001673ffffffffffffffffffffffffffffffffffffffff92909216919091179055565b600080600061039984610658565b905060006103a685610682565b905060006103d37f000000000000000000000000000000000000000000000000000000000000000061069c565b905060006040518061016001604052808b81526020018a8152602001898152602001848661040191906109a1565b61040b908a6109b4565b8152602081018690526040808201869052600554606083015273ffffffffffffffffffffffffffffffffffffffff7f00000000000000000000000000000000000000000000000000000000000000008116608084015260048054821660a08501527f0000000000000000000000000000000000000000000000000000000000000000821660c08501523360e09094019390935290517f4b0a7f8b00000000000000000000000000000000000000000000000000000000815292935060009290851691634b0a7f8b916104df91869101610a2b565b6020604051808303816000875af11580156104fe573d6000803e3d6000fd5b505050506040513d601f19601f820116820180604052508101906105229190610b70565b6040805173ffffffffffffffffffffffffffffffffffffffff868116825283166020820152338183015290519192507fd7b4770d872cf541c7302a5671e3ceb80df26b15aacab2ba0f395c3056b9ad5f919081900360600190a1919a91995090975050505050505050565b610595610603565b600555565b6105a2610603565b73ffffffffffffffffffffffffffffffffffffffff81166105f7576040517f1e4fbdf7000000000000000000000000000000000000000000000000000000008152600060048201526024015b60405180910390fd5b61060081610734565b50565b60005473ffffffffffffffffffffffffffffffffffffffff163314610656576040517f118cdaa70000000000000000000000000000000000000000000000000000000081523360048201526024016105ee565b565b600068056bc75e2d63100000600154836106729190610b8d565b61067c9190610ba4565b92915050565b600068056bc75e2d63100000600254836106729190610b8d565b6000763d602d80600a3d3981f3363d3d373d3d3d363d730000008260601b60e81c176000526e5af43d82803e903d91602b57fd5bf38260781b17602052603760096000f0905073ffffffffffffffffffffffffffffffffffffffff811661072f576040517fc2f868f400000000000000000000000000000000000000000000000000000000815260040160405180910390fd5b919050565b6000805473ffffffffffffffffffffffffffffffffffffffff8381167fffffffffffffffffffffffff0000000000000000000000000000000000000000831681178455604051919092169283917f8be0079c531659141344cd1fd0a4f28419497f9722a3daafe3b4186f6b6457e09190a35050565b6000602082840312156107bb57600080fd5b5035919050565b73ffffffffffffffffffffffffffffffffffffffff8116811461060057600080fd5b6000602082840312156107f657600080fd5b8135610801816107c2565b9392505050565b7f4e487b7100000000000000000000000000000000000000000000000000000000600052604160045260246000fd5b600082601f83011261084857600080fd5b813567ffffffffffffffff8082111561086357610863610808565b604051601f83017fffffffffffffffffffffffffffffffffffffffffffffffffffffffffffffffe0908116603f011681019082821181831017156108a9576108a9610808565b816040528381528660208588010111156108c257600080fd5b836020870160208301376000602085830101528094505050505092915050565b600080600080608085870312156108f857600080fd5b843567ffffffffffffffff8082111561091057600080fd5b61091c88838901610837565b9550602087013591508082111561093257600080fd5b61093e88838901610837565b9450604087013591508082111561095457600080fd5b5061096187828801610837565b949793965093946060013593505050565b7f4e487b7100000000000000000000000000000000000000000000000000000000600052601160045260246000fd5b8082018082111561067c5761067c610972565b8181038181111561067c5761067c610972565b6000815180845260005b818110156109ed576020818501810151868301820152016109d1565b5060006020828601015260207fffffffffffffffffffffffffffffffffffffffffffffffffffffffffffffffe0601f83011685010191505092915050565b6020815260008251610160806020850152610a4a6101808501836109c7565b915060208501517fffffffffffffffffffffffffffffffffffffffffffffffffffffffffffffffe080868503016040870152610a8684836109c7565b9350604087015191508086850301606087015250610aa483826109c7565b92505060608501516080850152608085015160a085015260a085015160c085015260c085015160e085015260e0850151610100610af88187018373ffffffffffffffffffffffffffffffffffffffff169052565b8601519050610120610b218682018373ffffffffffffffffffffffffffffffffffffffff169052565b8601519050610140610b4a8682018373ffffffffffffffffffffffffffffffffffffffff169052565b9095015173ffffffffffffffffffffffffffffffffffffffff1693019290925250919050565b600060208284031215610b8257600080fd5b8151610801816107c2565b808202811582820484141761067c5761067c610972565b600082610bda577f4e487b7100000000000000000000000000000000000000000000000000000000600052601260045260246000fd5b50049056",
    "linkReferences": {}
  },
  "methodIdentifiers": {
    "communityPercentage()": "c82403d6",
    "deployToken(string,string,string,uint256)": "a1c9973a",
    "launchboxExchangeImplementation()": "f8a208c1",
    "marketCapThreshold()": "70b0aec5",
    "owner()": "8da5cb5b",
    "platformFeePercentage()": "cdd78cfc",
    "renounceOwnership()": "715018a6",
    "router()": "f887ea40",
    "setCommunityPerecentage(uint256)": "272675b0",
    "setMarketCapThreshold(uint256)": "c9be579b",
    "setPlatformFeeAddress(address)": "9375da5a",
    "setPlatformFeePercentage(uint256)": "8333903e",
    "tokenImplementation()": "2f3a3d5d",
    "transferOwnership(address)": "f2fde38b"
  },
  "id": 51
}